:020000040800F2
:10000000A00B0020890100087F190008AF15000827
:100010007D1900088F020008A522000800000000DA
:10002000000000000000000000000000D11D0008DA
:10003000AD02000800000000CF1D0008D31D00081D
:10004000A3010008A3010008A3010008A301000800
:10005000A3010008A3010008A3010008A3010008F0
:10006000A3010008A3010008A3010008A3010008E0
:10007000A3010008A3010008A3010008A3010008D0
:10008000A3010008A3010008A3010008A3010008C0
:10009000A3010008A3010008A3010008A3010008B0
:1000A000A3010008A3010008A3010008A3010008A0
:1000B000A3010008391E0008A3010008A3010008DD
:1000C000A3010008A3010008A3010008A301000880
:1000D000A3010008A301000899220008A301000859
:1000E000A3010008A3010008A301000800F002F822
:1000F00000F03AF80AA090E8000C82448344AAF188
:100100000107DA4501D100F02FF8AFF2090EBAE885
:100110000F0013F0010F18BFFB1A43F0010318473B
:10012000FC3400001C350000103A24BF78C878C1A8
:10013000FAD8520724BF30C830C144BF04680C60ED
:10014000704700000023002400250026103A28BF35
:1001500078C1FBD8520728BF30C148BF0B60704739
:100160001FB51FBD10B510BD00F05CF81146FFF7BC
:10017000F7FF02F0E7F800F07AF803B4FFF7F2FFB8
:1001800003BC00F07DF8000009488047094800479B
:10019000FEE7FEE7FEE7FEE7FEE7FEE7FEE7FEE737
:1001A000FEE7FEE704480549054A064B7047000094
:1001B000351E0008ED000008A0050020A00B00205F
:1001C000A0070020A00700204FF0000200B5134652
:1001D00094469646203922BFA0E80C50A0E80C5067
:1001E000B1F12001BFF4F7AF090728BFA0E80C5018
:1001F00048BF0CC05DF804EB890028BF40F8042B11
:1002000008BF704748BF20F8022B11F0804F18BF7D
:1002100000F8012B704770477047704700487047DF
:100220003C0500207546FFF7F9FFAE46050069461C
:10023000534620F00700854618B020B5FFF7B2FFFF
:10024000BDE820404FF000064FF000074FF00008D7
:100250004FF0000B21F00701AC46ACE8C009ACE858
:10026000C009ACE8C009ACE8C0098D46704710B5BC
:100270000446AFF300802046BDE81040FFF77DBF85
:1002800001491820ABBEFEE7260002007047FEE7DA
:100290000346002010B50246491C04E09C5C521C39
:1002A0002044C0B2D2B28A42F8D310BD704772B6B1
:1002B000FEE710B590F821100022022905D0042194
:1002C000816380F82020012010BD01680B6823F0B5
:1002D0000E030B6001680B6823F001030B6090F8BC
:1002E0004030C46B012101FA03F3636080F82110F0
:1002F00080F82020104610BD10B590F82110002481
:10030000022903D00421816301243DE001680A68C9
:1003100022F00E020A6001680A6822F001020A60F7
:100320001A4A0168914201D1012121E0174A143291
:10033000914201D110211BE0144A2832914201D18F
:10034000891515E0114A3C32914201D189140FE020
:100350000E4A5032914202D14FF4803108E00B4AEC
:100360006432914202D14FF4801101E04FF080716C
:10037000064A083A5160012180F82110002180F8D6
:100380002010416B01B18847204610BD0800024093
:1003900070B5044600F008F90546601C02D0044818
:1003A0000078044400F000F9401BA042FAD370BD6D
:1003B0000C0000202DE9F84FDFF8B8910024A9F1D6
:1003C000040B23460F2709F1040AABF1040EC9E020
:1003D0000125A5402A40AA427DD1674ED1F804C02C
:1003E000ACEB0608B44532D014DCBCF1030F3AD0B4
:1003F00009DCBCF1000F2AD0BCF1010F1CD0BCF10C
:10040000020F31D11DE0BCF1110F17D0BCF1120F5A
:100410002AD119E0B8F5881F19D006DCB8F5803F5D
:1004200015D0B8F5801F1FD111E0B8F5001F0ED010
:10043000B8F5041F18D10AE0CB6815E0CB681B1D86
:1004400012E0CB6808330FE0CB680C330CE08B680C
:100450002BB1012B4FF0080303D0456104E00423C6
:1004600002E0056100E00023FF2A01D8064601E012
:1004700000F104064FEA840501D9A5F12005D6F85C
:10048000008007FA05FC28EA0C0803FA05F548EA9B
:100490000508C6F800804D68ED0062D5374DAE699D
:1004A00046F00106AE61AD6924F0030605F00105D2
:1004B0000095334D06EB050CDCF80850A607360F07
:1004C00007FA06F825EA0805DFF8B880404503D1A9
:1004D0004FF0000817E044E0DFF8AC80404502D15F
:1004E0004FF001080FE0DFF8A480404502D14FF043
:1004F000020808E0DFF89880404502D14FF0030879
:1005000001E04FF0040808FA06F848EA0508CCF8BC
:1005100008804D68D9F80060ED024D4601D51643BC
:1005200000E096432E604D68DAF80060AD02554653
:1005300001D5164300E096432E604D68DBF800605D
:10054000AD035D4601D5164300E096432E604D682D
:10055000DEF80060ED03754601D5164300E09643D2
:100560002E60641C0D682A46E5407FF431AFBDE87B
:10057000F88F000008040140000011100010024034
:100580000000014000080140000C01400010014043
:10059000001401408068084000D0012070470AB173
:1005A000016170470904FBE701488068704700005B
:1005B0000C00002002488168027811448160704775
:1005C0000C000020074810B5016841F010010160DF
:1005D000032000F075F80F2000F006F800F024F872
:1005E000002010BD0020024070B50D4D04464FF4B0
:1005F0007A712878B1FBF0F00A490968B1FBF0F094
:1006000000F0DCFA48B9102C07D200222146501E17
:1006100000F036F800206C6070BD012070BD000055
:100620000C000020180000200C4808B5816941F03A
:1006300001018161816901F001010091C16941F00D
:100640008051C161C06900F0805000900448416849
:1006500021F0E06141F00071416008BD00100240EE
:1006600000000140002809DB00F01F020121914039
:100670004009800000F1E020C0F800117047000040
:10068000F0B40E4B1B680C46C3F30223C3F10705FD
:10069000042D00D90425191D072901D2002300E0EB
:1006A000DB1E012606FA05F1491E214099409E40B5
:1006B000761E16403143F0BC01F0F5BD0CED00E0B4
:1006C000064900F0070208684FF6FF03184040EAA9
:1006D0000220034A10430860704700000CED00E060
:1006E0000000FA052DE9F0470F46050061D0434EA2
:1006F000306800F00700B84209D2306820F00700E7
:1007000038433060306800F00700B84251D12868A3
:100710003B4C810712D5400703D5606840F4E06088
:1007200060602878000703D5606840F4605060601E
:100730006068A96820F0F000084360602878C0076E
:1007400028D06868012810D02168022810D08907B5
:1007500000292EDA616821F0030101436160FFF78F
:1007600023FF804641F288390DE021688903EFE7D5
:100770008901EDE7FFF718FFA0EB0801494502D911
:100780000320BDE8F0876068696800F00C00B0EBFA
:10079000810FEFD1306800F00700B8420BD9306804
:1007A00020F0070038433060306800F00700B8429E
:1007B00001D00120E5E72878400705D56068E968A1
:1007C00020F4E060084360602878000706D5606880
:1007D000296920F4605040EAC100606000F038F8F8
:1007E0006168084AC1F30311515CC84006490860BA
:1007F00006480068FFF7F8FE0020C2E7002002402C
:1008000000100240DA2D000818000020100000201F
:100810000448054900684968044AC1F30221515C53
:10082000C84070471800002000100240EA2D000860
:100830000448054900684968044AC1F3C221515C73
:10084000C84070471800002000100240EA2D000840
:100850000E4A51680E4801F00C03042B11D0082BEE
:100860000FD10C48C1F38343C903C05C0AD551685A
:10087000084AC1F34041921E515C054A5043B0FB07
:10088000F1F07047044948437047000000100240EF
:1008900000127A00CA2D000800093D002DE9F84F2A
:1008A000040070D02078C04DC00749D06868C0F3FC
:1008B0008100012807D06868C0F38100022809D1AF
:1008C0006868C00306D52868800339D560680028A9
:1008D000E7D035E06068B0F5803F0BD010B1B0F5DF
:1008E000A02F11D0286820F480302860286820F4D8
:1008F000802002E0286840F480302860606890B171
:10090000FFF752FE06460AE0286840F4802028607F
:10091000F0E700BFFFF748FE801B642873D8286803
:100920008003F7D50CE0FFF73FFE064605E000BF69
:10093000FFF73AFE801B6428F0D828688003F7D4BC
:1009400020789A4E80074FF001094FF0000839D502
:10095000686810F00C0F07D06868C0F381000228A7
:1009600009D16868C00306D42868800714D52069B7
:10097000012808D110E02069B0B1C6F80090FFF757
:1009800013FE074605E00AE1FFF70EFEC01B022832
:10099000C4D828688007F7D52868616920F0F80076
:1009A00040EAC10028600DE0C6F80080FFF7FCFDBA
:1009B000074604E0FFF7F8FDC01B022823D828688B
:1009C0008007F7D4207800072CD57948A169D9B1E0
:1009D000C0F80090FFF7E8FD074604E0FFF7E4FDEC
:1009E000C01B02280FD8686A8007F7D571484FF4FA
:1009F000FA510068B0FBF1F0009000BF0098411E72
:100A00000091FAD20EE080E0C0F80080FFF7CCFD44
:100A1000074604E0FFF7C8FDC01B022875D8686AC6
:100A20008007F7D42078400760D5E8690027C00028
:100A300008D4E86940F08050E861E869012700F0D7
:100A4000805000905C480168C90513D40168834652
:100A500041F480710160FFF7A7FD824606E000BF08
:100A6000FFF7A2FDA0EB0A0064284ED8DBF80000D7
:100A7000C005F5D5E06801280AD008B1052813D0D3
:100A8000286A20F001002862286A20F0040002E0B1
:100A9000286A40F001002862E06841F2883B98B182
:100AA000FFF782FD82460BE0286A40F004002862CE
:100AB000EEE700BFFFF778FDA0EB0A0159455AD8D1
:100AC000286A8007F6D50CE0FFF76EFD824605E048
:100AD000FFF76AFDA0EB0A0159454CD8286A800748
:100AE000F6D41FB1E86920F08050E861E06988B36E
:100AF0006968C1F38101022944D00228C6F86080E8
:100B000004D0FFF751FD044638E034E0FFF74CFD18
:100B1000074604E0FFF748FDC01B02282BD82868D1
:100B20008001F7D4206AB0F5803F05D16868A168DC
:100B300020F4003008436860D4E90801084369687C
:100B400021F4741108436860C6F86090FFF72CFD2B
:100B5000044606E025E000BFFFF726FD001B022843
:100B600009D828688001F7D51BE000BFFFF71CFDFE
:100B7000001B022802D90320BDE8F88F28688001F5
:100B8000F4D40EE00128F7D06868226A00F48031BE
:100B9000914204D1616A00F47010884201D00120B2
:100BA000EAE70020E8E700000010024000004242AF
:100BB00080044242180000200070004010B5401E22
:100BC000B0F1807F01D3012010BD4FF0E0246061BF
:100BD0000F21601701F067FB0020A0610720206152
:100BE000002010BD7047704770B590F83C20012A76
:100BF00026D0012480F83C40022280F83D20036882
:100C00005A689D6822F070060A6832435A600D4B9C
:100C100002689A4208D0B2F1804F05D00A4B9A423E
:100C200002D00A4B9A4204D1496825F08003194347
:100C3000916080F83D40002180F83C10084670BD6E
:100C4000022070BD002C014000040040000800405C
:100C500010B5040003D094F83D0010B107E0012066
:100C600010BD002084F83C00204600F01FF8022050
:100C700084F83D00211D206801F0E4F8012084F88B
:100C8000460084F83E0084F83F0084F8400084F871
:100C9000410084F8420084F8430084F8440084F85A
:100CA000450084F83D00002010BD000008B5114A41
:100CB00001681148914211D1C16941F00201C1613D
:100CC000C069002200F00200009008211D20FFF7FB
:100CD000D7FCBDE808401D20FFF7C4BC074A91427D
:100CE00007D1C16941F00401C161C06900F004008D
:100CF000009008BD000400400010024000080040C1
:100D000090F83D10012901D001207047022180F8A0
:100D10003D100168CA6842F00102CA6000680B49D0
:100D2000884208D0B0F1804F05D00949884202D0EE
:100D30000849884204D1816801F00701062903D0DF
:100D4000016841F00101016000207047002C014062
:100D5000000400400008004070B5044690F83C00D4
:100D60000025012817D0012684F83C60022084F871
:100D70003D002068826822F0770222F47F42826080
:100D80000868502838D00DDC20284FD005DC90B3FF
:100D9000102811D14AE0022070BD302846D04028EA
:100DA0000AD13BE060282FD070280DD0B0F5805FCD
:100DB00003D0B0F5005F12D0012584F83D6000201B
:100DC00084F83C00284670BDCB68D1E90121206839
:100DD00001F081F82068816841F0770109E0CB6873
:100DE000D1E90121206801F076F82068816841F49A
:100DF00080418160E1E719E0CA684968206801F034
:100E00001FF95021206806E0CA684968206801F08F
:100E100028F96021206801F068F8CEE7CA684968BF
:100E2000206801F00DF940212068F4E722680146AE
:100E30001046F0E770472DE9F04104460068C668A7
:100E400005694FF00007A90713D5B10711D5F91EA1
:100E5000016101202077206880698007204602D048
:100E6000FFF7E8FF04E000F0A5F8204600F037F9AE
:100E70002777680716D5700714D521686FF004002E
:100E80000861022020772068806910F4407F2046A6
:100E900002D0FFF7CFFF04E000F08CF8204600F00E
:100EA0001EF92777280715D5300713D521686FF06D
:100EB00008000861042020772068C0698007204668
:100EC00002D0FFF7B7FF04E000F074F8204600F00E
:100ED00006F92777E80616D5F00614D521686FF0D5
:100EE00010000861082020772068C06910F4407F56
:100EF000204602D0FFF79EFF04E000F05BF820469A
:100F000000F0EDF82777E80708D0F00706D0216851
:100F10006FF001000861204600F030F9280608D57E
:100F2000300606D521686FF0800008612046FFF783
:100F300059FE680608D5700606D521686FF0400096
:100F40000861204600F022F9A8060AD5B00608D5A7
:100F500021686FF0200008612046BDE8F041FFF7EE
:100F600042BEBDE8F081000000B585B000210091CF
:100F700001910291039100680B49884211D10B48FD
:100F8000816941F0080181618069694600F00800CB
:100F90000490C02000900220019003900448FFF7C5
:100FA00009FA05B000BD0000000800400010024032
:100FB000000C0140704770B5044690F83C000026D4
:100FC0000D4601280FD0012084F83C006AB1042AA4
:100FD0001DD0082A2FD00C2A3FD00126002084F8EB
:100FE0003C00304670BD022070BD206800F086FFD6
:100FF0002068816941F0080181612068816921F0E0
:1010000004018161206881692A69114311E0206827
:1010100000F09CFF2068816941F4006181612068D3
:10102000816921F480618161206881692A6941EACE
:1010300002218161D2E7206800F0B4FF2068C16915
:1010400041F00801C1612068C16921F00401C1615A
:101050002068C1692A69114311E0206800F0CEFFC1
:101060002068C16941F40061C1612068C16921F44F
:101070008061C1612068C1692A6941EA0221C161B8
:10108000ACE710B5040003D094F83D0010B107E0C0
:10109000012010BD002084F83C00204600F01EF81E
:1010A000022084F83D00211D206800F0CBFE0120C5
:1010B00084F8460084F83E0084F83F0084F840003D
:1010C00084F8410084F8420084F8430084F8440026
:1010D00084F8450084F83D00002010BD704770473B
:1010E00010B50446022249B104290ED0082913D0B4
:1010F00094F84100012816D0012010BD94F83E005C
:101100000128F9D184F83E200FE094F83F0001282F
:10111000F2D184F83F2008E094F840000128EBD198
:1011200084F8402001E084F841200122206800F08A
:10113000C5FE0F492068884203D1426C42F4004248
:1011400042642068884208D0B0F1804F05D0094938
:10115000884202D00849884204D1816801F0070121
:10116000062903D0016841F001010160002010BD93
:10117000002C014000040040000800400249884261
:1011800001D100F0E7BA704728000020704770478F
:1011900070470000F8B5016804460868CA684B69E2
:1011A00010F00F0F4FF0000559D003F0010602F4C4
:1011B0009077374365D0C10705D0D10503D5616C61
:1011C00041F001016164410705D5D90703D0616C85
:1011D00041F002016164810705D5D90703D0616C34
:1011E00041F004016164010707D502F02001314399
:1011F00003D0616C41F008016164616C00293AD050
:10120000800604D5900602D5204600F06BFF2068CA
:101210004069616CC0F38010090700D460B32046B8
:1012200000F039FF20684069400621D5206814305D
:1012300050E8001F21F0400140E80012002AF5D1DB
:10124000E06BA8B16D494163E06BFFF755F80028EA
:1012500011D0E06B416B01B0BDE8F0400847830658
:101260000FD593060DD52046BDE8F84000F03ABFF3
:101270002046FFF78DFFF8BD2046FFF789FF656424
:10128000F8BD266B2023012E7CD1C6067AD5D60662
:1012900078D508684868009048694FF00206400613
:1012A00040D5E16B086840680004000CE8D0A28DCE
:1012B0008242E5D9E085886920282DD020680C304D
:1012C00050E8001F21F4807140E80012002AF5D197
:1012D0002068143050E8001F21F0010140E800129E
:1012E000002AF5D12068143050E8001F21F0400199
:1012F00040E80012002AF5D184F8423025632068C6
:101300000C3050E8001F21F0100140E80012002AC4
:10131000F5D1E06BFEF7CDFF6663A08DE18D401A3D
:1013200081B22AE0A08DE18D401A81B2E08D0028C3
:10133000A6D00029A4D022680C3252E8000F20F475
:10134000907042E80007002FF5D12068143050E873
:10135000002F22F0010240E80027002FF5D184F889
:101360004230256320680C3050E8002F22F0100234
:1013700040E80023002BF5D166632046FFF707FF06
:10138000F8BDFFE705062BD5150629D594F84100D1
:101390002128F5D1A068B0F5805F01D12069B0B1F6
:1013A000206A411C2162216800784860E08C401E60
:1013B0000004000CE084E3D12068C16821F08001C2
:1013C000C1602068C16841F04001C160D8E7206A6F
:1013D0000088C0F308004860206A801C2062E5E7AE
:1013E0004006CDD55006CBD5CA68204622F0400233
:1013F000CA6084F8413000F0D9F8C1E787200008BE
:1014000070B5040004D094F84100002510B106E046
:10141000012070BD84F84050204600F023F82420BD
:1014200084F841002068C16821F40051C160204661
:1014300000F0BAFE2068016921F490410161206842
:10144000416921F02A0141612068C16841F40051DD
:10145000C1606564202084F8410084F8420065631F
:10146000002070BD30B585B0002400940194029432
:1014700003940068184988422BD11848C16941F487
:101480000031C161C16901F400310491816941F009
:10149000040181618069124D00F004000490042071
:1014A0000090022001900320039069462846FEF731
:1014B00081FF0820CDE90004694628460294FEF722
:1014C00079FF002211462620FFF7DAF82620FFF7E1
:1014D000C9F805B030BD00000044004000100240D3
:1014E0000008014090F84230202B01D002207047C4
:1014F00021B11AB10023036300F0B2BE012070478E
:1015000070B52749884249D1264C274D207938B1FA
:1015100001280DD00026022812D0032836D118E069
:10152000E078295CFF2931D1401CE07001200EE0F9
:10153000E078401CC0B2E070072827D1022006E006
:10154000E078401CC0B2E07008281DD10320207153
:101550001CE0E078285CFE2816D106211248FEF730
:1015600097FEE97988420FD10E486978401D0170D5
:10157000A9784170B5F8030041BA0A4808300180E3
:10158000B5F8051049BA41802671E670E07829184F
:10159000BDE8704001220248FFF7A4BF70BD000003
:1015A000B8000020000000201C0000207047FEE76B
:1015B00010B520210348FEF7EDFF08B1002010BD53
:1015C000012010BD0008014010B540210348FEF77E
:1015D000E1FF08B1002010BD012010BD000801404E
:1015E00010B580210348FEF7D5FF08B1002010BDDB
:1015F000012010BD0008014070B50646284800EBE8
:10160000061420688047022100250028207906EB77
:10161000460331D0022801D2217170BD042802D2C4
:10162000401C207170BDA07A06EB4606761C20B9DE
:101630000120A072F0B200F06BF821890029F1D0EE
:10164000E088884208D2401C80B2E080218988422C
:10165000E8D1DB1CD8B20BE0E07A0028E2D0207B96
:10166000401CC0B22073E17A8842DBD32573F0B20C
:10167000BDE8704000F04CB8022801D921710BE0A0
:1016800010B1401E207107E0A07A012804D19B1CF4
:10169000A572D8B200F03CF8E580257370BD00005B
:1016A0000005002007498A7AC87A824201D10020C9
:1016B0007047885C521CD2B28A720A2AF8D3002280
:1016C0008A7270473005002030B50D4900200C4B60
:1016D0008872C8726424303B0146012503EB011275
:1016E000491C148115719072D072C9B2107303290C
:1016F000F4D304481860044818610448186230BDE7
:1017000030050020B1150008C9150008E1150008D2
:101710000549CA7A8854C87A401CC0B2C8720A28DF
:1017200001D30020C87270473005002010B5FFF7C4
:10173000CBFF03223221002000F016F800223221D4
:10174000012000F011F803223221BDE810400220F0
:1017500000F00AB810B500242046FFF74DFF641CC6
:10176000E4B2032CF8D310BD034B03EB001001814E
:10177000C27200210173704700050020F0B585B0EA
:10178000002427480094019402940394816941F055
:1017900010018161816901F010010491816941F0BA
:1017A00020018161816901F020010491816941F08A
:1017B00004018161816901F004010491816941F0B2
:1017C000080181618069174E00F008004FF4005550
:1017D0000490002229463046FEF7E1FE124F002217
:1017E00003213846FEF7DBFE0220CDE902400095DA
:1017F0000125694601953046FEF7DCFDE0208DE8C5
:10180000310069460948FEF7D5FD0320CDE9000502
:10181000CDE9024069463846FEF7CCFD05B0F0BD83
:101820000010024000100140000C0140000801407F
:1018300010B586B0002417480094019402940394D4
:10184000049413490594016040F2CF21C0E90114CA
:1018500040F2CF71C0E903148461FFF7F9F908B1D0
:10186000FEF725FD4FF48050009069460948FFF7C8
:1018700073FA08B1FEF71BFD049404A9054805940A
:10188000FFF7B2F9002801D0FEF711FD06B010BD38
:10189000000400402800002010B58EB000240794FA
:1018A000089409940A940B941C2168460C94FEF742
:1018B0008BFC23482149016040F2CF21C0E901148B
:1018C00040F2CF71C0E903148461FFF7C1F908B198
:1018D000FEF7EDFC4FF48050079007A91848FFF77A
:1018E0003BFA08B1FEF7E3FC1548FFF7CAFB08B165
:1018F000FEF7DDFC0B940BA911480C94FFF774F96B
:1019000008B1FEF7D4FC6020CDE900040420049067
:101910000022694602940A48FFF74DFB08B1FEF722
:10192000C6FC042269460648FFF745FB08B1FEF7EE
:10193000BEFC0348FFF718FB0EB010BD00080040C6
:10194000700000200C4810B50A4901604FF4E131E5
:101950004160002181600422C160C0E904128161FC
:10196000C161FFF74DFD002803D0BDE81040FEF730
:101970009EBC10BD00440040B8000020FEE7FEE71A
:1019800010B50021074C0A46002004EBC1131A547D
:10199000401CC0B28028FAD3491CC9B20829F3D32D
:1019A00010BD000000010020F0B50B4424E0044607
:1019B00085181DE07F2C19D8002917DB3F2915DC7D
:1019C000CE1701EB56764FEAE60C0D4F26F00706D0
:1019D00007EBCC172744A1EB060E97F800C00126B1
:1019E00006FA0EF62CEA060C87F800C0641C24B236
:1019F000A542DFDC491C09B28B42D8DCF0BD0000F7
:101A00000001002010B500204FF47A720021491C1B
:101A10009142FCD3401C9042F8D3012000F09EF983
:101A2000BDE81040012000F0A1B970B500240646C1
:101A3000802525FA04F0304000D0012000F096F90E
:101A4000012000F08BF9002000F088F9641CE4B25A
:101A5000082CEED3012000F081F9BDE87040002091
:101A600000F07CB910B5012000F080F9012000F0F1
:101A700075F9002000F07AF9BDE81040002000F070
:101A80006DB910B5002000F071F9012000F066F981
:101A9000BDE81040012000F069B910B5FFF7B2FFB2
:101AA000AE2000F06BF9D52000F068F9802000F03E
:101AB00065F9A82000F062F93F2000F05FF9D3201B
:101AC00000F05CF9002000F059F9402000F056F9D0
:101AD000A12000F053F9C82000F050F9DA2000F0FE
:101AE0004DF9122000F04AF9812000F047F9CF208B
:101AF00000F044F9D92000F041F9F12000F03EF95E
:101B0000DB2000F03BF9302000F038F9A42000F091
:101B100035F9A62000F032F98D2000F02FF91420BD
:101B200000F02CF9AF2000F029F9FFF729FFBDE8FC
:101B3000104000F0CFB80246012000E05043491E9B
:101B4000FCD2704710B50C4640F0B00000F016F91A
:101B5000102040EA141000F011F904F00F00BDE865
:101B6000104000F00BB9000008B5082B0DD0062B73
:101B70000AD10A4B02EB420203EB4202C03A009246
:101B80000823062200F00EF808BD054B03EB0212F5
:101B9000A2F50072102300920822F3E7E233000856
:101BA000F22D00082DE9F04F1F4616460D468246DD
:101BB0000024FFF7F9FE7F1EF81707EB5070012194
:101BC000DFF898B001EBE00743E000203DE000BF04
:101BD0000AEB00037F2B36D8E91705EB5171CA10C9
:101BE00021F00701691A002D03DA521E083112B2E2
:101BF00009B202EB0409B9F1070F0ED8099A04FBE8
:101C000006F802440BEBC91E18F802201EF803C0A8
:101C10008A404CEA020C0EF803C009F10102072ABF
:101C200011D80BEBC91202EB0308099A04FB06FC5E
:101C3000024498F880301CF80220C1F10801CA4023
:101C4000134388F88030401CC0B2B042C0D3641C3B
:101C5000E4B2A742B9DCBDE8F08F0000000100202B
:101C60002DE9F04700241D4690468A4681460A2702
:101C7000089E14E0291B0A20491EFFF75CFFB8FBF1
:101C8000F0F0B0FBF7F107FB110204FB069000B285
:101C9000334651463032FFF767FF641CE4B2AC4272
:101CA000E8D3BDE8F0872DE9F0411E461546884689
:101CB0000746002408E004FB067000B233464146A4
:101CC000FFF752FF641CE4B22A5D002AF3D1BDE89D
:101CD000F081000070B5084D002400212046FFF778
:101CE00031FF05EBC410802100F059F8641CE4B208
:101CF000082CF2D370BD0000000100202DE9F04156
:101D00000646C81701EB5070C410C8189046401E14
:101D1000C21700EB5270012202EBE00005B200296D
:101D200002DA6D1E2DB2641E0B4F11E07F2E0DD80E
:101D3000002C0BDB072C09DCF1B2E0B2FFF702FF4D
:101D400007EBC4103044414600F029F8641C24B26B
:101D5000AC42EBDBBDE8F08100010020024601212E
:101D60000148FEF71CBC0000000C014002460221A5
:101D70000148FEF714BC0000000C014010B50446F9
:101D8000FFF770FE7820FFF750FE0020FFF74DFEB2
:101D90002046FFF74AFEBDE81040FFF772BE70B55F
:101DA0000D460646FFF75EFE7820FFF73EFE402018
:101DB000FFF73BFE002404E0305DFFF736FE641CB5
:101DC000E4B2AC42F8D3BDE87040FFF75ABE7047AA
:101DD0007047FEF7EFBB30B58FB028216846FEF79D
:101DE000F3F914210AA8FEF7EFF901210804CDE95F
:101DF00000100024029402250491CDE907504FF40D
:101E0000E01009906846FEF749FD08B172B6FEE79A
:101E10000F20CDE90A054FF48060CDE90C40022186
:101E20000AA80E94FEF75EFC002801D072B6FEE709
:101E30000FB030BD704700000148FEF7FCBF000046
:101E400028000020F0B50268194B1A4C1A4D4FF0CB
:101E50008047984205D0B84203D0A04201D0A842A2
:101E600003D122F070064A683243984205D0B84246
:101E700003D0A04201D0A84203D122F44074CA6822
:101E800022434C6922F08002224302608A68C262C7
:101E90000A688262984201D10969016301214161A6
:101EA0000169C90703D0016921F001010161F0BD99
:101EB000002C0140000400400008004010B501F073
:101EC0001F030121046A99408C430462016A9A400D
:101ED0001143016210BD10B5846842EA032224F464
:101EE0007F440A432243826010BD826822F0700260
:101EF0000A4342F0070181607047000030B5036A71
:101F0000026A22F0010202624268846924F07305C9
:101F10000C682C4323F002058B682B430A4DA84222
:101F20000BD123F00805CB6822F440722B434D6996
:101F300023F0040315438A692A4342608461496897
:101F40004163036230BD0000002C014030B5026ADD
:101F5000036A23F010030362436884690D6824F464
:101F6000E64444EA05248D6822F0200242EA051284
:101F70000B4DA8420ED1CD6822F0800242EA051234
:101F80004D6923F4406343EA85038D6922F04002E2
:101F900043EA85034360846149688163026230BD1E
:101FA000002C014030B5036A026A22F4807202629A
:101FB0004268C46923F4007324F073050C682C4351
:101FC0008D6843EA05230C4DA8420ED1CD6823F459
:101FD000006343EA05234D6922F4405242EA0512A8
:101FE0008D6923F4806342EA05124260C461496846
:101FF000C163036230BD0000002C014030B5046AAB
:10200000026A22F4805202624268C3690D6823F4B6
:10201000E64343EA05238D6824F4005444EA05347A
:10202000064DA84204D14D6922F4804242EA85124D
:102030004260C36149680164046230BD002C014004
:1020400010B5036A046A24F001040462846924F070
:10205000F00444EA021423F00A020A438461026293
:1020600010BD10B5036A046A24F010040462846988
:1020700023F0A00324F4704444EA023243EA01113D
:102080008261016210BD10B5406A0021C185C18422
:10209000FFF77EF810BD01680C3151E8002F22F4E3
:1020A000907241E80023002BF5D10168143151E80A
:1020B000002F22F0010241E80023002BF5D1016B33
:1020C000012909D101680C3151E8002F22F01002DA
:1020D00041E80023002BF5D1202180F84210002197
:1020E0000163704708B590F84210222901D0022000
:1020F00008BD82684FF480539A4201D1016921B131
:10210000816A9A421BD04AB10AE00268816A526829
:10211000C2F308020A80816A891C08E0026972B170
:102120000268526802F07F020A70816A491C81626B
:10213000C18D491E0904090CC18503D01BE002684A
:102140005268F1E70168CA6822F02002CA6001689B
:10215000CA6822F48072CA6001684A6922F00102EA
:102160004A61202180F8421000214163026B012A5C
:1021700003D0FFF7C5F9002008BD016301680C31E9
:1021800051E8002F22F0100241E80023002BF5D186
:1021900001680A68D20602D50A6849680091818DF3
:1021A000FEF7F5FFE7E7000070B504460068016937
:1021B000E26821F44051114301612169A06808439C
:1021C000616908432168CA6841F20C639A4302437B
:1021D000CA6020684169A26921F4407111434161DC
:1021E0001E492068884202D1FEF722FB01E0FEF77B
:1021F0000FFB00EBC00101EB00126068642180005E
:10220000B2FBF0F3B3FBF1F36FF018067343B2FBCC
:10221000F0F5B2FBF0F605EB8305322303EB051571
:10222000B5FBF1F5B6FBF1F605F0F00505EB06158B
:10223000B2FBF0F6B2FBF0F0B0FBF1F06FF0180279
:10224000504306EB800003EB0010B0FBF1F0216877
:1022500000F00F002844886070BD00000038014085
:1022600081628285C28500214164222180F842106A
:10227000016921B10168CA6842F48072CA600168CC
:102280004A6942F001024A610068C16841F02001D8
:10229000C1600020704700000148FEF77BBF0000CE
:1022A000B8000020FEE70907090E002804DB00F152
:1022B000E02080F80014704700F00F0000F1E020EB
:1022C00080F8141D7047000010B51B4C4FF0080338
:1022D000207830B119A200213020FFF7E4FC202340
:1022E0000FE017A200213020FFF7DDFC60784FF0EF
:1022F00008034FF03E02B8B120210020FFF734FC64
:102300001023082210210020FFF74EFB1023182273
:1023100000213020FFF7F2FC202308221021BDE825
:1023200010400020FFF7EABC10210020FFF71CFC42
:10233000102308222021E6E700000020425420005C
:102340004B65790008B5FEF73DF9FFF744FDFFF74F
:1023500015FAFFF7A1FAFFF76BFAFFF7F3FA764FDA
:102360004FF40054002221463846FEF718F94FF486
:1023700096752846FEF70CF8012221463846FEF7EE
:102380000EF94FF4FA763046FEF702F800222146A5
:102390003846FEF704F92846FDF7FAFF01222146E8
:1023A0003846FEF7FCF83046FDF7F2FF00222146E2
:1023B0003846FEF7F4F82846FDF7EAFF01222146E9
:1023C0003846FEF7ECF8FFF7B1F95C48FEF798FCE9
:1023D00000215B48FEF784FE04215948FEF780FE89
:1023E000FFF75BFB0021082356A20846FFF75BFCC2
:1023F000082356A210211846FFF755FC082356A2C1
:1024000020211846FFF74FFCFFF764FCFFF75CFF45
:10241000534D4FF000096C1F85F8009085F801902E
:102420005048E178012201444F48FFF75BF8DFF89C
:102430001081082715F10306FFF734F9A07098B34F
:10244000012806D0042811D0062816D007282BD141
:102450001CE02078012825D06078295C491EC9B28B
:102460002954B4291ED905F800901BE0607810B1FA
:102470000020607016E00120FBE72078012802D0E0
:10248000012020700EE084F800900BE020780128F5
:1024900008D06078295C491CC9B22954B42901D9F3
:1024A000B4212954FFF710FF207838BB287800F0BA
:1024B00090FADFF8B8A00022534600F005F9DFF8E3
:1024C000B0B000225B4600F057F80022294B00F024
:1024D00093FA00F051FA3080687800F07AFA00221E
:1024E000534600F0F1F800225B4600F045F8002268
:1024F000204B00F081FA00F03FFA7080D8F80020FD
:1025000031885163D8F800007188816300972A7878
:10251000032310215020FFF7A3FB00976A780323C1
:1025200020215020FFF79CFB20231822102150204F
:10253000FFF7E4FB80E700000010014028000020C6
:10254000700000204D6F64653A200000416E676C9A
:1025500065586F593A000000416E676C655A3A0041
:10256000050000201C000020B800002000003240C0
:10257000000004400000344010B591EA030F48BF4A
:1025800083F0004300F13E83841A71EB030C05D203
:10259000121943EB0C03001B61EB0C01DFF824E183
:1025A0004FEA1154A4EB135C1EEA430F18BF9EEAD6
:1025B000445F73D023EA0E03DCF1200E21EA0451BC
:1025C00043F4801332D322FA0CFE10EB0E0023FAF0
:1025D0000CFE41EB0E01CCF1200E03FA0EFE10EBC7
:1025E0000E0051F10001B1F5801FCCF1200E32D266
:1025F00001EB045112FA0EF2BDE8104058BF7047CB
:10260000401C38BF5FEA420218BF7047002814BF61
:1026100020F0010041F100014FEA410313F5001FD2
:1026200038BF7047A1F1C04100F0DEBA012A43EB88
:102630000302ACF1200CDCF11F0E32BF4FF0000E94
:1026400023FA0CF310EB030041EB0451B4EB115FE0
:10265000D0D0A1EB045101F5801149085FEA3000A8
:1026600001EB04510ED350F1000038BF12FA0EFEF8
:1026700008D1BDE81040C9E7401C38BF5FEA4202FC
:10268000CAD1C3E7BDE810404FEA410313F5001F6C
:1026900038BF7047A1F1C04100F0A6BA9EEA445F7E
:1026A00008D011EA5E0FBDE8104004BF01F0004100
:1026B00000207047BDE8104070B500F047FA00BF39
:1026C00064FBBE3E0000E0FF2DE9C04130B4DFF8FE
:1026D000A0C23CEA111418BF3CEA131400F0EC80CD
:1026E00081EA03051CEA111444EAD57418BF1CEAF8
:1026F000131500F0C780A4EB05044FF0004545EA30
:10270000C12145EAC32341EA505143EA525304F13F
:102710007F74994204F500344FEAC0204FEAC22288
:1027200008BF904200F09C804FEA13650FF24016FC
:10273000765D4FEA134506FB05F7C7F1807706FB88
:1027400007F74FEAD737A7FB03687642C8F580380A
:10275000A7FB06CE38BFA8F1010807FB08E64FF03B
:10276000000EA6FB028CE6FB03CEDCF1000CCEF1E2
:10277000004E38BFAEF1010EA6FB0C584FF000071B
:102780004FF00005E6FB0E87A1FB08C6A0FB07CEB5
:1027900016EB0E0645F10005E1FB076515F1E04E6D
:1027A0007EBFA4F580345FEA46066D4116F18007CE
:1027B00045F100054FEA17274FEA066647EA056725
:1027C000A6F1DE46B6F1805F4FEA15251FD93846DF
:1027D00024F0010C05EBC471BCF1FE6F01EB0C1190
:1027E00002D8F0BCBDE8008124425CBF01F5801E28
:1027F0009EEAC47F02D4F0BCBDE80081244238D4F4
:10280000F0BCA1F1C041BDE8004100F0EDB94FEAD4
:10281000D22242EA43524FEAD323A7FB02864FEA71
:10282000D02040EA415007FB03661EEA0E0F4FEA34
:10283000D12105FB026658BFA6EB0056B6EB005649
:102840004FEA520E4EEAC37E18EB0E0E56EB530EB5
:10285000BDD518EB02085E417F1C55F10005B6E7B7
:102860004FF480154FF000074FF000064FF00008BE
:10287000ADE7F0BC4FF0000001F1C04101F00041B4
:10288000BDE8008111EA0C1F0CEA131500D00CE022
:1028900013EA0C1F00F025804FF00000F0BC81EA25
:1028A000030101F00041BDE80081F0BCBDE800413A
:1028B00081EA030100F098B9F0BCBDE8004170B5B1
:1028C00000F044F9097EFC3E00F007B881EA0301FC
:1028D0004FF0000001F00041704781EA030100F071
:1028E00083B9F0BCBDE800414FF0000021497047BA
:1028F000FFFDFBF9F7F5F4F2F0EEEDEBE9E8E6E4C5
:10290000E3E1E0DEDDDBDAD8D7D5D4D3D1D0CFCD4B
:10291000CCCBCAC8C7C6C5C4C2C1C0BFBEBDBCBB84
:10292000BAB9B8B7B6B5B4B3B2B1B0AFAEADACAB7F
:10293000AAA9A8A8A7A6A5A4A3A3A2A1A09F9F9E59
:102940009D9C9C9B9A99999897979695959493930B
:10295000929191908F8F8E8E8D8C8C8B8B8A8989A2
:102960008888878786858584848383828281818025
:102970000000FF070000F87F4FEA1153A3F58063C2
:10298000D3F11E03A8BFD3F1200C08DB4FF00042A7
:1029900042EAC12252EA505232FA03F07047094229
:1029A0000BD4102BC4BF0020704703F5787CBCF11A
:1029B000FF3F05D04FF0FF3070474FF000007047E9
:1029C00070B500F0C3F800BF499224800020704722
:1029D000F0E7B0FA80F310FA03F10AD0C3F11D0357
:1029E00003F580634FEA41504FEA035202EBD121D5
:1029F00070474FF000007047DFF848C170B51CEA1F
:102A0000111E1EBF1CEA13159EEA0C0F95EA0C0F4F
:102A100000F06F8081EA030423EA4C134EEAD47E6F
:102A200021EA4C1141F4801143F48013AE44A1FB20
:102A3000024CA0FB0365AEF17F7E361955EB0C0509
:102A4000A1FB034C4CF10003A0FB021C16EB0C068F
:102A5000654153F10003094218BF46F0010613F423
:102A6000007F0BD14FEA03314FEA0530340341EACE
:102A7000155140EA16506FF003020AE04FEAC321F5
:102A80004FEAC520F40241EA555140EA56506FF032
:102A9000020202EB2E4201EB025585EACE710AD00A
:102AA0005FEA440C18BF24F0004450F1000041F1EB
:102AB000000120EAD47040F2FE7C624500D270BD75
:102AC000A84214BF4FF080444FF04044002E08BF8E
:102AD0000024BEF1806FA8BFA1F1C041BDE87040E5
:102AE00080F282804FF0000001F1C04101F000410E
:102AF00070479EEA0C0F0CEA131518BF95EA0C0FED
:102B000006D04FF0000081EA030E0EF0004170BDC8
:102B100000F01CF88900013E00F007B800F009B889
:102B20004FEA430C5FEA5C5C08D081EA030100F0E5
:102B30005BB84FEA410C5FEA5C5CF6D14FF00000F5
:102B4000014970470000FF070000F87F0EF1020EF8
:102B50002EF0030E5EF8046B364205D4012A43EBD7
:102B6000030515F5001F12D8012841EB010C1CF5D7
:102B7000001F0CD80ED14FEAD17C15F5001F0CEBCD
:102B80004C0C0CF1020C08BF4CEBD37C04E04FF072
:102B9000080C01E04FEAD37C0CEB4C0526FA05F655
:102BA00006F00706B6F1040C06D20EEB860CBDE863
:102BB00070404CF0010C6047DFE80CF0090B02029A
:102BC0004FF000414FF00000A1F5002170BD194603
:102BD0001046012851EB010418BFD4F5001484BF3E
:102BE000002001F0004170BD0808A0F500114FEA77
:102BF0003101704710B591EA030F48BF83F00043DD
:102C00003FF5C2AC841A71EB030C07D212198CF099
:102C1000004C43EB0C03001B61EB0C01DFF8A4E15B
:102C20004FEA1154A4EB135C1EEA430F18BF9EEA4F
:102C3000445F00F0B08023EA6E03524221EA04515F
:102C4000C3EB6E0338BF5B1EDCF1200E25D322FAE6
:102C50000CFE10EB0E0043FA0CFE41EB0E01CCF122
:102C6000200E03FA0EFE10EB0E0051F10001CCF124
:102C7000200E29D412FA0EF201EB0451BDE81040E7
:102C800058BF7047401C1CBFB2F1004F704700286E
:102C90000CBF491C20F00100704712EB020E43EB01
:102CA000030218BF4FF0010E4EEA4202ACF1200CB5
:102CB000DCF11E0E54D943FA0CFE10EB0E0051F15C
:102CC000FF31CCF11E0ED5D50EF1010E12FA0EFE1B
:102CD000404141EB010101EB445C5FEA5C5C10D9CF
:102CE00010EBDE7001EB045138BFBEF1004FBDE8C0
:102CF000104018BF704700280CBF491C20F001008D
:102D0000704730D24FEAD42C11F5001124F400643E
:102D10001BD0B1FA81F20B3AA41AA41ED2F12003FF
:102D2000914030FA03F31943904001EBCC71002C31
:102D300001EB0451BDE81040A8BF704701F1C0414C
:102D40004FF0000001F000417047B0FA80F310FA34
:102D500003F100D110BDE41A173C4805C90AE4E7A5
:102D600001EB045110BD491001EB0451BDE81040C6
:102D70004FEA300002E04FF0000170474A0008BF00
:102D80000042F8D0B2F5001F28BF704701F00041A3
:102D90004FF0000070479EEA445F07D011EA5E0FD3
:102DA000BDE8104004BF002100207047BDE810407E
:102DB00070B5FFF7CBFE00BF40DFF63E83F0004169
:102DC000104670470000E0FF0102020304050607F9
:102DD00008090A0B0C0D0E0F101000000000000077
:102DE00000000102030406070809000000000102B8
:102DF00003040000000000000000000000000000CC
:102E00000000000000F80000000000000033300067
:102E1000000000160E00160E00000000000000006A
:102E2000000040C07840C0784000043F04043F04E4
:102E30000400007088FC08300000001820FF211EEC
:102E40000000F008F000E018000000211C031E2123
:102E50001E0000F00888700000001E21232419279E
:102E60002110000000160E0000000000000000000D
:102E70000000000000E01804020000000007182015
:102E8000400000020418E000000000402018070085
:102E90000000404080F0804040000202010F01022B
:102EA0000200000000F0000000000101011F01010C
:102EB0000100000000000000000000B070000000F1
:102EC00000000000000000000000000101010101FD
:102ED0000101000000000000000000303000000090
:102EE0000000000000008060180400601806010067
:102EF000000000E010080810E000000F1020201073
:102F00000F00001010F8000000000020203F2020DB
:102F10000000007008080888700000302824222172
:102F20003000003008888848300000182020201128
:102F30000E000000C02010F8000000070424243F09
:102F4000240000F8088888080800001921202011B2
:102F50000E0000E0108888180000000F11202011DA
:102F60000E0000380808C83808000000003F0000C4
:102F700000000070880808887000001C22212122AF
:102F80001C0000E010080810E000000031222211AF
:102F90000F00000000C0C000000000000030300042
:102FA0000000000000C0C0000000000080B0700001
:102FB00000000000804020100800000102040810FA
:102FC0002000404040404040400004040404040409
:102FD00004000008102040800000002010080402B7
:102FE0000100007048080808F000000000303601B9
:102FF0000000C030C828E810E00007182724231478
:103000000B000000C038E0000000203C2302022733
:10301000382008F8888888700000203F2020201180
:103020000E00C030080808083800071820202010BB
:10303000080008F808080810E000203F20202010B1
:103040000F0008F88888E8081000203F202023207F
:10305000180008F88888E8081000203F20000300C6
:103060000000C03008080838000007182020221E81
:10307000020008F808000008F808203F210101219B
:103080003F20000808F8080800000020203F20200A
:10309000000000000808F8080800C08080807F0059
:1030A000000008F888C028180800203F20012638B2
:1030B000200008F8080000000000203F2020202009
:1030C000300008F8F800F8F80800203F003F003F03
:1030D000200008F830C00008F808203F200007183A
:1030E0003F00E01008080810E0000F10202020101A
:1030F0000F0008F808080808F000203F210101012E
:103100000000E01008080810E0000F1824243850D0
:103110004F0008F8888888887000203F2000030C42
:10312000302000708808080838000038202121224B
:103130001C00180808F8080818000000203F2000AC
:10314000000008F808000008F808001F20202020D0
:103150001F000878880000C83808000007380E01F2
:103160000000F80800F80008F800033C0700073CDE
:103170000300081868808068180820302C03032C8E
:1031800030200838C800C83808000000203F200060
:10319000000010080808C838080020382621202020
:1031A0001800000000FE020202000000007F404004
:1031B0004000000C30C00000000000000001063894
:1031C000C00000020202FE000000004040407F00FC
:1031D000000000201008040810200000000000007B
:1031E00000000000000000000000808080808080DF
:1031F00080800002040800000000000000000000C1
:10320000000000008080808000000019242222221B
:103210003F2008F8008080000000003F11202011AE
:103220000E000000008080800000000E1120202091
:103230001100000000808088F800000E112020108E
:103240003F200000808080800000001F2222222278
:103250001300008080F0888888180020203F2020FC
:1032600000000000808080808000006B9494949324
:10327000600008F8008080800000203F21000020CE
:103280003F2000809898000000000020203F202070
:103290000000000000809898000000C08080807FBF
:1032A000000008F8000080808000203F24022D30BC
:1032B0002000000808F8000000000020203F202027
:1032C00000008080808080808000203F20003F20A0
:1032D000003F008080008080000000203F2100200F
:1032E0003F200000808080800000001F20202020E0
:1032F0001F00808000808000000080FFA12020113E
:103300000E000000008080808000000E112020A0B0
:10331000FF80808080008080800020203F2120006E
:103320000100000080808080800000332424242459
:103330001900008080E0808000000000001F202035
:1033400000008080000000808000001F20202010EE
:103350003F20808080000080808000010E300806C1
:10336000010080800080008080800F300C030C30D2
:103370000F0000808000808080000020312E0E3100
:103380002000808080000080808080818E70180600
:10339000010000808080808080000021302C22216C
:1033A000300000000000807C020200000000003FAE
:1033B000404000000000FF00000000000000FF008F
:1033C00000000002027C800000000040403F00003E
:1033D00000000080404080000080000000000001EC
:1033E00001000000000000000000002F00000000AD
:1033F0000700070000147F147F1400242A7F2A127C
:10340000002313086462003649552250000000076B
:10341000000000001C224100000041221C0000149A
:10342000083E08140008083E0808000000A06000DC
:10343000000808080808000060600000002010086C
:103440000402003E5149453E0000427F40000042D8
:1034500061514946002141454B31001814127F103B
:10346000002745454539003C4A494930000171096A
:10347000050300364949493600064949291E00001E
:1034800036360000000056360000000814224100C5
:1034900000141414141400004122140800020151F5
:1034A0000906003E4955592E007C1211127C007FFE
:1034B00049494936003E41414122007F4141221C99
:1034C000007F49494941007F09090901003E4149FE
:1034D000497A007F0808087F0000417F41000020F2
:1034E00040413F01007F08142241007F404040409E
:1034F000007F020C027F007F0408107F003E4141E4
:10350000413E007F09090906003E4151215E007FCE
:10351000091929460046494949310001017F010145
:10352000003F4040403F001F2040201F003F4038E8
:10353000403F006314081463000708700807006127
:103540005149454300007F4141000002040810201A
:10355000000041417F00000402010204004040409D
:103560004040000001020400002054545478007FC1
:103570004844443800384444442000384444487F98
:1035800000385454541800087E0901020018A4A4FD
:10359000A47C007F080404780000447D40000040C3
:1035A00080847D00007F102844000000417F40009F
:1035B000007C04180478007C080404780038444433
:1035C000443800FC242424180018242418FC007C0F
:1035D0000804040800485454542000043F44402088
:1035E000003C4040207C001C2040201C003C40301F
:1035F000403C004428102844001CA0A0A07C0044AB
:1036000064544C440000087F41000000007F00002B
:103610000000417F08000008040810083C3600083C
:10362000000000201C000000280100085836000897
:103630001C000020840B0000440100080000000072
:103640000000000000000000010000001000000069
:083650000000000000127A00E6
:04000005080000ED02
:00000001FF
