:020000040800F2
:100000002014002035020008416A0008BF61000882
:100010003D6A000891420008496F00080000000096
:10002000000000000000000000000000716A0008ED
:10003000A542000800000000456A0008456B000862
:100040004F0200084F0200084F0200084F0200084C
:100050004F0200084F020008A74200084F020008A4
:100060004F0200084F0200084F0200084F0200082C
:100070004F0200084F020008954200084F02000896
:100080004F0200084F0200084F0200084F0200080C
:100090004F0200084F0200084F0200084F020008FC
:1000A0004F0200084F0200084F0200084F020008EC
:1000B0004F0200084F0200084F0200084F020008DC
:1000C0004F0200084F0200084F0200084F020008CC
:1000D0004F020008396F00084F0200084F02000865
:1000E0004F0200084F0200084F02000800F002F81B
:1000F00000F090F80AA090E8000C82448344AAF132
:100100000107DA4501D100F085F8AFF2090EBAE82F
:100110000F0013F0010F18BFFB1A43F0010318473B
:10012000ACD70000CCD70000103A24BF78C878C103
:10013000FAD8520724BF30C830C144BF04680C60ED
:10014000704700000023002400250026103A28BF35
:1001500078C1FBD8520728BF30C148BF0B60704739
:100160006E2902F03B86702902F0158366290CF097
:10017000028465290CF0FF8367290CF0FC83612958
:100180000CF0FB8303681B0A28BF41F0800169293A
:1001900002F0E885642902F0E585752902F0E28520
:1001A0006F2902F00A87782902F0E182E92902F03A
:1001B000A586E42902F0A286F52902F09F86EF29A0
:1001C00002F00787F82902F0E0820368DB0928BF04
:1001D00041F08001632903F01983732903F01E8322
:1001E000E32903F02983F32903F02E8300207047CD
:1001F0001FB503F07FFB0400002000210BF0E4F9A1
:10020000401C6060002000210BF0C8F9E0601FBDB9
:1002100010B510BD03F040FB1146FFF7E9FF09F0F0
:1002200055FF03F01DFC03B4FFF7F2FF03BC03F01E
:1002300061FC00000948804709480047FEE7FEE7E7
:10024000FEE7FEE7FEE7FEE7FEE7FEE7FEE7FEE786
:1002500004480549054A064B70470000B36B000887
:10026000ED000008200E00202014002020100020A7
:100270002010002010B5F949C4074FF040434FF05B
:10028000804205D08B66CB66C1E91C328A67CA679B
:10029000840709D5C1F80031C1F80431C1E94232FF
:1002A000C1F81021C1F81421400709D5C1F89831CF
:1002B000C1F89C31C1E96832C1F8A821C1F8AC216C
:1002C00010BD2DE9F14F82B0002102988A4689467F
:1002D000806F00287DD000220020401C0428FCDB19
:1002E00002984FF0000C00EBC203D3E90010A1FB11
:1002F0000167D3E9065400FB017701FB0077CDE9E4
:100300000067A646AE1B64EB0704AB460327A6FBBB
:10031000075804FB078406FB0C44DDE90067AD19B0
:100320007C41A5FB016704FB017405FB0045D3E993
:100330000C47341B65EB0705CDE900455D46A5FB81
:1003400005670324A6FB04580EFB0B770BFB0E7707
:1003500007FB048406FB0C44D3E91263761B63EBB2
:1003600004034C18A4FB017C40EB000505FB01C510
:1003700004FB0055A7FB014C05FB01C507FB00551D
:10038000A4FB017C05FB01C504FB0054F619634185
:10039000DDE90045AD0045EA9475A400A4FB017CAD
:1003A00005FB01C104FB0014F01B73EB040103D532
:1003B0000023404263EB0101BAEB000479EB010337
:1003C00001DA82468946521C032A85DB504649469B
:1003D00000E010E00BF0E1FFA149896B0BF090FE0B
:1003E0000CF086FA9D4AD2F80C2203B09200BDE8C8
:1003F000F04F02F020B9002003B00146BDE8F08FB5
:100400002DE9F14F0020009A0146926FF2B30024CB
:100410000022521C042AFCDB009A02EBC405AA4607
:10042000D5E90029A2FB023CD5E906769E46FB1AD7
:100430000325A3FB057809FB02CC02FB09CB66EB85
:100440000B0606FB05854FF0000C03FB0C5617EB63
:100450000E03A3FB027C46EB0B0606FB02C203FB6A
:100460000923DAE90C25BA1AAB4103D5002552421B
:1004700065EB0303851A71EB030501DA1046194693
:10048000641C032CC4DB0BF088FF00E00EE0744911
:10049000896B0BF035FE0CF02BFA704AD2F80C2267
:1004A000BDE8F84F02EB420202F0C5B80020014659
:1004B000BDE8F88F2DE9FE43684D80460024D5F84D
:1004C00010626F4605EBC4013246D1E9020102F029
:1004D0009FF805EB8401B1F884100904401847F82F
:1004E000240004F10104032CECDB5C489821083063
:1004F00002F0F8FA0120FFF7BDFE95F8E801019936
:10050000042807D1D5F81802B0F5201F02DD052018
:1005100085F8E801524C0098636AC11A01D40E466E
:1005200000E01E1A0198A26A801A01D4074601E071
:10053000019FD71BBE4206DD002901D4084606E014
:100540000098181A03E0002801D50198101A029AA1
:10055000E16A521A01D4134601E0029BCB1A83428E
:1005600005DB002A01D4104601E00298081AD8F8E9
:10057000241008F086FFD5F81812814206DD032109
:10058000684609F065FC022009F0CAFC0098606228
:100590000198A0620298E062BDE8FE83304AC2E999
:1005A000020170472E4AC2E9060170472C4AC2E98F
:1005B00004017047294AD2F8E0310360D2E974029D
:1005C000C1E900027047254AD2F8E0310360D2E960
:1005D0007602C1E9000270472DE9FE4781460020FE
:1005E000EA468A6F22B901EB800339F91020DA67F5
:1005F00001EB800239F91030D46F1D1B4AF82050EE
:10060000136E9D4200DD1566D36E9D4200DAD566FD
:100610000123002422464FEAE578A3FB056704FB8B
:10062000057403FB0844334602EB420601EBC606A1
:1006300006EBC00CDCE90076FF186641CCE90076D9
:10064000521C042AE9DB401C0328CADB886F401CCB
:1006500088670120C1F89000BDE8FE8700070020F0
:100660006009002030B5002302EB830550F82340D9
:100670005B1CEC66032BF7DBC2F88810916F79B135
:10068000002102EB810450F82130E56F5B1B00D59F
:100690005B42256E9D4200DA2366491C0329F0DB8C
:1006A000906F401C90670120C2F8900030BD10B5DB
:1006B00000210B4600EB8102491CD46ED4671366FF
:1006C0000329F7DBD0F8881040F8783FC0E905131C
:1006D00010BDD0E92210081A70470146D1E918026E
:1006E000824200DB1046896E814200DB084670477B
:1006F0002DE9F0478046501E012686408946C2F10A
:100700002007404601F097FF04460D464046494603
:100710003A4601F07DFF3A4601F08DFFB04203DD1D
:10072000641C45F1000505E07142884202DA641E4E
:1007300045F1FF3520462946BDE8F087F7490020FE
:10074000086248628862C862086448648864C86451
:10075000086348638863C863086548658865C86539
:10076000704730B5EE4AD2F8483223B1D2E99054FE
:100770002D1A8C4101DAC2E990015B1CC2F84832A3
:1007800030BD30B5E64AD2F8583223B1D2E994549C
:100790002D1A8C4101DAC2E994015B1CC2F858326F
:1007A00030BD30B5DE4AD2F828322BB1D2E98845C7
:1007B000041B71EB050401DAC2E988015B1CC2F875
:1007C000283230BD30B5D64AD2F838322BB1D2E912
:1007D0008C45041B71EB050401DAC2E98C015B1C3A
:1007E000C2F8383230BD2DE9F0470246CC48012529
:1007F00008308046C36E016E046FC91A436E1B1B1E
:100800008B4200DB1946836ED8F87400181A8842B0
:1008100000DB0146C14F6037F86B884204DA0024E0
:1008200000F00AFA204687E7108E0124BC4EC0056E
:100830004FF000010ED5D6F880303068834209DBD6
:10084000B2F87420D20506D5D6F8B021824201DB79
:10085000052400E00C4674B3600719D5AF48C838CA
:100860008146FFF72EFD000D40EA01300915C6E96B
:100870007601D7E904321B1A8A4102DA0025FFF714
:10088000A1FF9821484602F02DF90420FFF7F2FC61
:10089000E0070ED04046FFF714FDC6E97C01D7E91A
:1008A00006340246181A8C4103DA00251046FFF779
:1008B00078FF284640E7FFE702203DE71EB50446E3
:1008C00090F83000C0F38110032804D19449201D12
:1008D0000831FFF781FE94F87400C0F381100328FB
:1008E00005D18E4904F14800C839FFF775FED4F8E8
:1008F000B8008B4AC0F38113A0326946032B0FD096
:10090000C0F3411003281AD1002004EB8003D3F870
:10091000A0309B1341F82030401C0328F5DB09E090
:10092000002004EB4003B3F98C3041F82030401C28
:100930000328F6DB6846D4F8C010FFF793FE1EBD0F
:100940002DE9F04705460020296BCA0567D501F05F
:100950005001402900D1012095F8741001F0500198
:10096000402900D1012095F8B8106D4C01F05001DC
:10097000402900D030B100F05FF90020C4F8E00158
:1009800084F8E801654ED4F80812E86A60368142BE
:1009900025D0C4F808020A28306B0ADA400020602B
:1009A000716B491CC4F80C120BF0DCFC0AF0E0FD82
:1009B00004E02060706BC4F80C02B06BC4F8140241
:1009C000D4F80C02C0F11000C4F810024FF48040BB
:1009D000C4F8180296F8341019208840F0632846AD
:1009E000FFF76CFF94F8E811DFF8349105274FF01A
:1009F000020809F1A009072911D2DFE801F004116A
:100A000027305E7E8500D4F8E001411CC4F8E01177
:100A10000A2804DB00F010F9012084F8E80186E0E0
:100A2000D4F89800012810D12846FFF7DCFE10B159
:100A3000012803D004E084F8E87101E084F8E8813B
:100A40004846FFF734FEFFF779FE70E0032084F894
:100A5000E8012846FFF72EFD00F0EEF867E0284693
:100A6000FFF7C1FEF0B3012861D1B5F8B8004FF02F
:100A70000403C00515D54846FFF72FFE0146C017F1
:100A8000C4E97410D6E902C2BCEB0101824102DA6A
:100A900084F8E87108E04846FFF71BFE316A884297
:100AA00002D384F8E83124E0F4E97601FFF769FE27
:100AB000D4E90601FFF755FE39E0B5F8B800C005E6
:100AC0000BD54846FFF709FE0146C017C4E974106C
:100AD000D6E90232591A824108DB2846FFF783FE25
:100AE00000B100E002E0012803D020E084F8E871C2
:100AF0001DE02846FFF7DEFCD6E7062084F8E80173
:100B0000012009F00DFA0DE02846FFF76CFE0128E0
:100B100001D038B10BE084F8E88108E0000900203A
:100B20000007002000F088F84846FFF7C0FD0020CD
:100B300002E610B500214010002802D001F10101A9
:100B4000F9DC454C4FF0010001F1010100FA01F020
:100B5000C4E90C010BF006FC0AF00AFDA06394F84E
:100B6000341019208840E06310BD10B54FF418719F
:100B70003A4801F0B7FF4021374801F0B3FF0720A2
:100B8000FFF778FB344840F2DC510022C0E906123E
:100B90001421C0E902124FF41671C0E90412304961
:100BA0002E4C01620120C4F8E4011920FFF7C1FFB7
:100BB0000020C4F8080210BD10B54FF41871274882
:100BC00001F090FF0720FFF755FB24480121002288
:100BD000C0F8E41180F8E8110321012009F092F92E
:100BE00007226421AFF2A720BDE8104008F012BF31
:100BF00010B5012009F094F9AFF2BB20BDE8104018
:100C000009F002BA10B5FFF7B0FF002805D1AFF226
:100C10005700BDE8104008F0C1BF10BD10B5FFF788
:100C2000E7FFAFF26B00BDE8104009F01FBA0B49B7
:100C3000D1E97C0170477047084810B59821083009
:100C400001F050FF9821074801F04CFFBDE810402B
:100C50000520FFF70FBB00006009002000070020FF
:100C60000008AF2F380800202DE9FC5F0D46002654
:100C7000416B99469246B046002904DBD0F8BC008F
:100C8000032800D10126FF492422081F01F0C3FEDA
:100C9000FC4FC03F0024C7F8E05007EB8400D0F8B9
:100CA000BC1040460BF0B8F9641C80460A2CF4DBFB
:100CB000F5490BF025FAF54C80464FF0C80BC7F804
:100CC000E400BAF1320F21DB4846C7F81CB10BF043
:100CD00049FB00900190EE4928460BF011FA01996A
:100CE0000BF0D0FB21460BF00BFA0446BAF57A7FE5
:100CF00033DBE8492846009C0BF002FA21460BF052
:100D0000C1FBE2490BF0FCF9044626E041F28831D0
:100D100099FBF1F04042D7F81C1100EB800040181D
:100D2000C7F81C0102D50020C7F81C0148460BF08B
:100D300019FB8246D84928460BF0E2F951460BF0E0
:100D4000A1FB21460BF0DCF90446D7F81C0120B9C1
:100D5000D7F82801012800D10024D7F8200100B1DC
:100D60002C46CE49894500D12C4614F0FF4F11D0B6
:100D70004046C7F8E88041460BF044FD20F00040B3
:100D8000C7490BF04BFC22D2D7F8B80010F0FF4F48
:100D900003D01CE0D7F8E800EDE7C6B14846C7F835
:100DA0001CB10AF09CFE04460E4628460BF008F9DA
:100DB0000022BC4B0AF00CFD224633460AF0E2FE4C
:100DC0000022B94B0AF004FD0AF014FC0446204648
:100DD000BDE8FC9F2DE9F04FABB04FF0000AA94FE2
:100DE000CDF810A0C03FCDF814A0CDF818A004464F
:100DF000D7F82011022003297DD0002620AD07EB73
:100E00008600D0F8A8000BF0ADFA6FF01D010BF0D2
:100E100016FE45F82600761C042EF0DB0FA807F01E
:100E2000E3FF24A808F02AF8964B24AA183B0FA940
:100E30002046279300F0F4F9064604F1180008F064
:100E400085F882099548D7F83031834200DB0346A4
:100E500031462046FFF708FFBB4607F1B806D7F832
:100E6000EC100BF00FFB30600BA807F0BDFF13A9CF
:100E70000BA808F061FD83480FAA3C300BA9064679
:100E800008F059FB31460BA808F03AFB00210DF1A0
:100E90003C080DF14C090DF1100E002213461046CE
:100EA00001EB410C0CEB000759F8276008EB8007B9
:100EB000401C7F680328C6FB0723F3DB900F40EA42
:100EC00083004EF82100491C0329E6DBDBF82001F2
:100ED0005F4600287DD05046CDF818A040420BF068
:100EE00041FA6FF01D0949460BF0A9FD06F0FAFB27
:100EF000D046564600E074E0CDE9000A0698CDF8E9
:100F000008A040420BF02EFA49460BF098FD0AF07B
:100F10006BFA0390D7F8300141F2883190FBF1F081
:100F20004FF0804A0BF01EFA2890299006980BF09B
:100F300019FADFF878B159460BF0E2F829990BF06D
:100F4000DFF851460BF0DCF80BF0D0F940000690CA
:100F5000DDF8A0A00BF006FA59460BF093FA5146C3
:100F60000BF090FA0BF0C2F906900BF0FBF9494632
:100F70000BF065FD06F0B6FBCDE90706099606986D
:100F80000BF0F0F949460BF05AFD0AF02DFA0A90E1
:100F90001CAA694620A808F027FB6A4607A91CA8D6
:100FA00008F022FBD4F8BC00EA46002810DD002639
:100FB0001E215AF8260045F826000BF040FD0BF0E4
:100FC00095F907EB8601761CC1F8A800042EEFDB2B
:100FD00000E00BE0D4F8BC004FF0FF3503280AD145
:100FE00006E0C7F820012BB0BDE8F08F069875E742
:100FF00001F007FBF0B357F8A80F0BF0B3F94E461A
:1010000049460BF01CFD1C9078680BF0ABF931469B
:101010000BF015FD1D90B8680BF0A4F931460BF0EC
:101020000EFD1E90F8680BF09DF931460BF007FDA0
:101030001F90B86FA83F0028D5D0D7F8B800294630
:10104000A8370BF0FCFC06F04DFB1E210BF0F7FC63
:101050000BF04CF9C7E90008C7F808802946386941
:101060000BF0EDFC0AF0C0F91E210BF0E8FC0BF0D0
:101070003DF900E01CE0F860D4F8C010A83F2798C4
:1010800044E00000600A00200000204100409C4530
:1010900000004843000048420000C84340420F009F
:1010A0000E2DB23D000079400088B340E102374781
:1010B0002946D7F8B8000BF0C2FC06F013FBCDE9C7
:1010C0000708CDF824802946D7F8B8000BF0B7FC04
:1010D0000AF08AF90A906A4607A920A808F084FA5B
:1010E000684608F051FB002556461E2156F825009B
:1010F0000BF0A5FC0BF0FAF807EB85016D1CC1F8AD
:10110000A800042DF1DBD4F8C010279808F0F8FDF2
:10111000D7F8200100288FD0401E62E770B590F804
:10112000B810664ACC064FF000034FF0030101D41B
:10113000C2E94813B0F82041E40509D4048EE4055F
:1011400003D5B0F87440E40502D4C2E948131AE0AC
:10115000D2F8341139B1D0E93013C91A4FF47A7387
:10116000B1FBF3F105E0D0F8B01044F62064A142E1
:1011700002DBC2F830110AE0D2F82C512944C2F83F
:101180002C11A14201DA002070BDC2E94B31FFF7FA
:1011900021FEF8E710B54FF49C71484801F0A2FC1D
:1011A000464C4FF080400021C4F8FC0044F8A80FE2
:1011B0004248A83008F0A4FD4FF47A7060674FF001
:1011C0007E50606410BD3D49C1F8EC0000207047BE
:1011D0003A49C1F82801002070473849C1F8340164
:1011E0000020704704224FF41671AFF2CF0008F0D0
:1011F00011BCAFF2D70008F007BF10B5FFF7CAFF68
:101200002E490020C1F82801C1F83401AFF22B00AB
:10121000BDE8104008F0C2BCAFF2370008F026BFAE
:101220002DE9FF470C4625491546074699463C22BD
:101230000C31224801F0EFFB204950225831A1F136
:10124000100001F0E8FB1D4E95E8070006F13C0395
:101250001B4D83E807001ECC06F1980080E81E00B5
:10126000D6F82401401CC6F82401062802DD062019
:10127000C6F82401C0F1060407F1A00818E006EB47
:1012800004116A464846483108F055F904EB440019
:1012900006EB80016A46404607F0DCFB074625F076
:1012A000004120F000400BF0B9F800D23D46641C2C
:1012B000062CE4DB04B02846BDE8F087A009002036
:1012C000002474491FB501461022684601F05EFBF8
:1012D000F6489DE80E0080E80E00F5499DF80C00E8
:1012E00081F8B001002004B010BD1FB5EF490EC950
:1012F0008DE80E00EE49102291F8B0118DF80C1017
:10130000694601F043FB0020EDE72DE9F04F91B075
:1013100000251821684601F0E5FB0024182106A8E5
:1013200001F0E0FBE249A046C14691F8C001012866
:101330007ED1D1F8B8B1D1F8B4A10022C2EBC2007D
:1013400000EB4001DA4800EB810E9EF850000F9050
:10135000002863D000215EE05EF82130DDE90067FF
:101360006D1CD8170E939B197841CDE900300EEB18
:101370008100EDB243690D93DDE9027CDE17DB19D4
:1013800046EB0C06CDE90236836ADDE9047CDE1704
:101390000C93DB1946EB0C06CDE90436C06B0E9BB3
:1013A000DDE9067C83FB0063360C46EA0346F6194A
:1013B0004CEB2343CDE906630D9BDDE9087C83FB01
:1013C00000634FEA164646EA0346F6194CEB234300
:1013D000CDE908630C9BDDE90A7C83FB00634FEADF
:1013E000164646EA0346F6194CEB2343CDE90A6359
:1013F00080FB00634FEA164646EA034616EB0808F0
:1014000049EB23490444584501DA834602E050453C
:1014100000DD8246491C0F9888429DDC521C052A3B
:101420008CDBA348AAEB0B01D0F8BC01814200E0A1
:1014300053E052DBA5FB0872E01700260F9006FB75
:10144000082005FB09000E9084FB0410090C41EAFA
:1014500000410014CDE90C0106A800EBC601D1E95A
:101460000002A0FB05BC02FB05C2002100FB012C11
:10147000684600EBC601D1E90002A0FB043802FB7C
:1014800004820F9900FB0120190C0CAA41EA0049C3
:101490004FEA204A92E80B0087EA010283EA00083B
:1014A00052EA080212D07A1A63EB0003BBEB090080
:1014B0006CEB0A0C4FEA0C4141EA1041000401F0C8
:1014C000CDF87B4901EB8601C1F8A401761C032EFF
:1014D000C2DB7748012180F8B01111B00020BDE8CF
:1014E000F08FF8B5724D0E460446D5E96D01091A24
:1014F000052291FBF2F1301A90FBF1F0C0B28DF8A9
:101500000000042801D92020F8BDC0EBC00000EB8A
:10151000400005EB800191F85000052816D0421CD0
:1015200081F850209DF80010C1EBC10101EB410191
:1015300005EB810202EB8001CE63236842F8203084
:1015400060684861A06888620020F8BD01F140032E
:10155000181F1022194601F05EFA9DF800001022B3
:10156000C0EBC00000EB400005EB8000011D01F066
:1015700052FA9DF800001022C0EBC00000EB4000C2
:1015800005EB800000F11801143001F044FA9DF8D9
:1015900000001022C0EBC00000EB400005EB800013
:1015A00000F12C01283001F036FA0420BAE730B5FA
:1015B00085B0044603A9684607F09EFC04A807F01E
:1015C0003BFD02282BD0D4F8E4000399401A384997
:1015D00091F8B02112B308B3D1F8A421009C80FB8C
:1015E0000232150445EA134222440092D1F8A821A0
:1015F000019C80FB0232150445EA13422244019209
:10160000D1F8AC11029A80FB0110030443EA1140A7
:10161000104402900321684608F01AFC0CE0606B4D
:10162000032809D107F07AFC30B168460399FFF727
:1016300058FF08B9FFF769FE05B0002030BD10B5AE
:101640004FF4E2711A4801F04DFA19481949C0F8EF
:10165000B4114FF4AA01C0F8B8114FF4A021C0F89A
:10166000BC11012180F8C011002010BD1049C1F843
:10167000B801002070470E49C1F8B401002070473E
:101680000B49C1F8BC010020704758B10849D1F896
:10169000A4210260D1F8A8214260D1F8AC11816088
:1016A0000020704705207047242070477C0C0020E4
:1016B000D80A00200000D8FF20B12D4981F8C001D0
:1016C0000020704724207047294B93F8B10100286F
:1016D00018D0D3E96D10401A052190FBF1F00020DD
:1016E000C0EBC00101EB410103EB810191F85020F7
:1016F00022B1002100E0491C8A42FCDC401C052884
:10170000EEDB00207047082296211A4808F082B9C3
:10171000184808F079BC10B5FFF791FF4FF49A73A1
:1017200010221549154808F0F1F920B9AFF2290047
:1017300008F034FA08B1012010BD0D49012081F8EC
:10174000B101002010BD10B5094C94F8B10100287A
:1017500008D0084808F058FCAFF2550008F086FCA5
:1017600008B1012010BD002084F8B10110BD0000B7
:10177000D80A0020AF150008EB120008C5120008B7
:101780002DE9F043044699B01D4691460E46806807
:101790000AF0E8FD01460AF075FE804660680AF02E
:1017A000E1FD01460AF06EFE074620680AF0DAFD08
:1017B00001460AF067FE39460AF02EFC41460AF05F
:1017C0002BFC09F0D5FE074620F000404FF08D417C
:1017D0000AF024FF7ED230680AF0C4FD6FF01D08C5
:1017E00041460BF02CF9049070680AF0BBFD4146AD
:1017F0000BF025F90590B0680AF0B4FD41460BF0F6
:101800001EF90690F0680AF0ADFD41460BF017F99D
:1018100000260C96079020680AF0A4FD39460AF0CD
:101820006FFC0D9060680AF09DFD39460AF068FC77
:101830000E90A0680AF096FD39460AF061FC0F9000
:1018400010AA0CA904A807F0CFFE14A904A807F059
:1018500063FE6A4614A910A807F0C6FE019908465F
:101860000AF010FE0299044608460AF00BFE2146D3
:101870000AF0D2FBFE49884201DAFE4C0BE0FE4939
:10188000884201DAFD4C06E0FD49884202DA4FF059
:101890007A5400E0FB4C48460AF064FDFA490AF02D
:1018A0002FFC21460AF0EEFD0446089621460298D8
:1018B0000AF0E8FD09900198214680F000400AF006
:1018C000E1FDCDE90A066A4604A908A807F08CFEE6
:1018D0006A4600E025E004A9104607F0F8FD6846D6
:1018E00007F009FF1E2100980BF0A9F80AF0FEFC92
:1018F00028601E2101980BF0A2F80AF0F7FC68603E
:101900001E2102980BF09BF80AF0F0FCA8601E2143
:1019100003980BF094F80AF0E9FCE86019B0BDE810
:10192000F08396E80F0085E80F00F7E72DE9F05FF8
:1019300005460C4680680AF015FD01460AF0A2FD36
:10194000074668680AF00EFD01460AF09BFD064650
:1019500028680AF007FD01460AF094FD31460AF0B6
:101960005BFB39460AF058FB09F002FE4FF07E5946
:10197000002706464FF08048484505DCC4E900874B
:10198000A760E760BDE8F09FA8680AF0EBFC31466D
:101990000AF0B6FB8246014648460AF033FF4FF490
:1019A0000006B04200DA00204FF0FF310BF047F89C
:1019B00009F0DEFD8346494650460AF02DFBB04251
:1019C00000DA00204FF0FF310BF039F809F0D0FDBC
:1019D000824668680AF0C6FC01460AF053FD0646D6
:1019E00028680AF0BFFC01460AF04CFD31460AF0B7
:1019F00013FB09F0BDFD06464845BFDD1E215046DC
:101A00000BF01DF80AF072FC206068680AF0AAFC6E
:101A100031460AF075FB59460AF034FD1E210BF0E1
:101A20000EF80AF063FC606028680AF09BFC3146FF
:101A30000AF066FB59460AF025FD94490AF022FD9A
:101A40000AF054FCC4E902079CE72DE9F041054681
:101A50000C46C0680AF086FC01460AF013FD804679
:101A6000A8680AF07FFC01460AF00CFD074668688A
:101A70000AF078FC01460AF005FD064628680AF0DF
:101A800071FC01460AF0FEFC31460AF0C5FA3946FF
:101A90000AF0C2FA41460AF0BFFAB0F5000F06DAC2
:101AA0004FF08040206000206060A0602DE009F0D1
:101AB0005FFD01464FF07E500AF022FB1E210AF026
:101AC000BEFF064628680AF04DFC31460AF0DAFCF3
:101AD0000AF00CFC206068680AF044FC31460AF009
:101AE000D1FC0AF003FC6060A8680AF03BFC3146B8
:101AF0000AF0C8FC0AF0FAFBA060E8680AF032FCC1
:101B000031460AF0BFFC0AF0F1FBE060BDE8F0816D
:101B100070B5044690F8300088B0400676D5A069CC
:101B2000002801DB014600E041424FF480320026EC
:101B3000574D91420BDAE169002900DA494291429E
:101B400005DA216A002900DA4942914260DB002867
:101B500000DA40424FF4C80188420BDCE0690028FB
:101B600000DA4042884205DC206A002800DA404260
:101B7000884201DD032000E00220A863696BA06AAF
:101B8000814219D06863A06A0AF0ECFB41490AF06F
:101B9000B7FA1D210AF053FF0AF012FA3E4A3F4BF2
:101BA00009F0F0FF08220AF01CFF00223C4B09F06C
:101BB0000FFE09F065FF28630496296BA06907F002
:101BC00060FC0590296BE06907F05BFC0690296BCF
:101BD000206A07F056FC07906A4604A92C4807F0D3
:101BE000AAFC00982A4A8001009001986946800169
:101BF00001900298800102900398800103901046A2
:101C000007F053FC22490846FFF71FFF08B070BDDC
:101C1000AE63FBE72DE9F0430446D0F820018FB016
:101C200041067CD51A4DD4F810111E4B2A68891A2A
:101C3000D4F82C215A438A4201DA032100E0022120
:101C4000A963810504F58870804601D51049D4E068
:101C5000002104A807F050F90D490C223C3104A8DA
:101C600000F068FE08BBD4F82801A96D88421BE08B
:101C700017B75139A69BC43B0AD7233C8FC2753D89
:101C8000CDCC4C3ECDCCCC3E0014CD47000080CE18
:101C90009C0C002000247449112D4454FB21094060
:101CA0000080664071981C007ED0208807AB80B20F
:101CB00004AA616A06F01FFF09980AF053FB014667
:101CC0000AF0E0FB074608980AF04CFB01460AF0D0
:101CD000D9FB064607980AF045FB01460AF0D2FBFD
:101CE00031460AF099F939460AF096F909F040FCB4
:101CF0000646E8490AF0C6FBE7490AF001FA6FF028
:101D00000F010AF09CFE0746D4F828010AF02AFBCE
:101D100039460AF0B7FBE1490AF0F2F900E06EE05B
:101D20004FF0FF310AF08BFE074605F0DBFC8146E1
:101D3000384609F059FB07464FF08040864204DAE6
:101D4000A8640020E864286533E01E2148460AF0B4
:101D500076FE0AF0CBFAA86407980AF003FB8146E6
:101D6000CF4938460AF08EFB074649460AF08AFBFF
:101D700031460AF0C5F90AF0B9FAE86408980AF0A1
:101D8000F1FA014638460AF07DFB31460AF0B8F90F
:101D90000AF0ACFA286509980AF0E4FA01463846D8
:101DA0000AF070FB314600E00EE00AF0A9F90AF0F3
:101DB0009DFA04AB686593E8070005F13C0383E8EE
:101DC0000700D4F82801A8656A46B649404607F0DE
:101DD000B2FBB4480AAA14306946044607F0ABFBCC
:101DE0002146404607F08CFBAE486A460AA94838AF
:101DF00007F0A1FBAB4968464839FFF726FE0FB054
:101E00008DE51FB50446A7486946483807F078FBBA
:101E1000A44A6946283A204607F08DFBA1491DCC0B
:101E2000383981E81D001FBD2DE9F0479D4E04465D
:101E3000483E90F8740006F15C0A06F1200801257E
:101E400000F05001103692B004F5887904F15C0777
:101E5000402906D094F8200100F0500040280DD011
:101E60001EE031463846FFF761FDB4F82001C00599
:101E70000CD55146484607F043FB07E0514648461B
:101E800007F03EFBB4F87400C00509D585486946E3
:101E9000483807F035FB42466946304607F04BFBB1
:101EA000B4F82001C005204602D5FFF7B3FE01E0DB
:101EB000FFF72EFE7B4932464839404607F03BFB90
:101EC00094F87400400671D5208EB4F820110843B0
:101ED000C00578D50FAA3946304607F00CFDD4E985
:101EE000172080FB0001C2FB0201626E6D4FC2FB36
:101EF0000201483F4FF08042801A71F1020014DB6A
:101F000004A807F065F8DDE9042080FB0001C2FBAE
:101F10000201069AC2FB02014FF08042801A71F161
:101F2000020002DB0420B8630BE0B86B042808D081
:101F300041F28832022806D0032804D001283AD082
:101F400009E0002507E0E16E91FBF2F5012D00DAD2
:101F50000125032800D0AD005348002445431098C4
:101F600007948002294607F08CFA08900F982946BA
:101F70004042800207F085FACDE909040BAA3146F8
:101F800007A807F0D8FA32460BA9104607F08DFAD9
:101F900031460846FFF759FD42486946483807F080
:101FA000AFFA42466946304607F0C5FA12B0002043
:101FB000BDE8F08707E0E06E90FBF2F0012800DA60
:101FC00001204500C7E7334619463846E26EFFF761
:101FD000D7FBE1E770B50446008EC105D4F82001B7
:101FE00007D4B4F87410C90503D4C10501D4002086
:101FF00070BDC0F30120032808D02046FFF714FF6E
:102000002848A16B383807F0EDFFF0E704F5887138
:1020100024482EC9383880E82E00F1E7234807F01D
:10202000F3BF204810B56C21483800F05BFD1D4817
:102030004FF080414838016101600162C163C165B0
:10204000002010BD1D4810B5082219A1006800F03D
:1020500071FC08B1322010BD1322BDE81040C82128
:10206000124807F0D7BC10B5FFF7DBFF002805D1F9
:10207000AFF22F00BDE8104007F090BD10BD10B5C5
:102080000A4807F0C1FFAFF24300BDE8104007F077
:10209000EDBF0000DB0F49400000344300247449C9
:1020A000000080CEE40C0020A69BC400D51F0008D1
:1020B000654D504C20352E3100000000600000209E
:1020C000002803DDFE490122C1E9200200207047FB
:1020D00010B5B821FA4800F005FDF948F949C1608A
:1020E000F9498160F9490160F94941604FF0804147
:1020F00041664FF4FA61C167F649C0F89C100020B0
:1021000010BD2DE9F041EE4C0E4607460025216832
:102110000AF084FA11D3384661680AF07FF90CD3CB
:102120002069012813D13046E1680AF077FA04D318
:102130003046A1680AF072F909D2606F20B9E04810
:10214000A16D183007F0DCFD0120C4E91D05D4E9BC
:102150001E01884204DB606F012800D1E5656567D8
:10216000BDE8F08170B50C46054606F049FED44A3C
:10217000002110B9D848854202DD1161516102E0A9
:102180001069002808D1506920445061B0F5FA7FE9
:1021900002DD0120C2E9040170BDF0B58DB00D462D
:1021A00014460646694607F0C7FB09AA3146284689
:1021B00007F0C1F92946304607F0A2F90021EC46A4
:1021C0000DF1240E00231A46184601EB41073D1875
:1021D0000EEB80065CF825507668401CC5FB063285
:1021E0000328F4DB980F40EA820044F82100491CE0
:1021F0000329E7DB0DB0F0BDB1490020C1F88C0028
:10220000704770B5044680680AF0ACF801460AF0E1
:1022100039F9054660680AF0A5F801460AF032F976
:10222000064620680AF09EF801460AF02BF931466E
:1022300009F0F2FE294609F0EFFE09F099F9BDE830
:1022400070406FF00F010AF0FABB70B50E46002522
:102250009B4C012130B101280CD0C4F8981044F8EF
:102260008C5F29E0C4F8A060C4E92965E4E924157D
:10227000A56070BD3046D4F8A0100AF0C3FA20F073
:102280000040D4F89C100AF0C9F813D254F8945FB7
:1022900031466D1C2560206909F0BEFE2061943C2A
:1022A000312DE6DD022144F8901F8C4909F028FF0A
:1022B000A06170BD44F8905F656070BD2DE9FF4F6F
:1022C0008BB000267E4C0546039604960596D4F8FE
:1022D00088009346374600287ED006F02FFE10B1C6
:1022E00003A806F0FBFDD4F88000A146002819DD04
:1022F00001204C46C9F8840006F020FE48B103A82E
:1023000006F024FE8009B0F5C87F02D2D4F8800020
:1023100004E0D4F88000401BC4F88000002801DCF1
:10232000C4F8847006F0EAFF002855D000240E9807
:1023300050F824000AF016F882465BF824000AF0F0
:1023400011F86FF00F0841460AF079FB51460AF088
:1023500099F841460AF073FB314609F05DFE641CB2
:102360000646032CE3DB5846FFF74BFF0146069079
:10237000304609F0C5FE4FF07E58DFF864A14045B5
:1023800001DD404602E0504500D9504604F0CAFF46
:102390008346D9F88C004E4670B1316806980AF031
:1023A0003DF809D2716806980AF038F904D2594606
:1023B000D6F89000FFF749FF684606F027FE40492F
:1023C0000C22AC31684600F0B5FA18B9D6F898007E
:1023D00001286CD13A4800E0C6E09DE80E00AC3020
:1023E00080E80E00009818B9019808B9029858B30F
:1023F0006846FFF706FF044610F0FF4F57D0DFF89E
:10240000E490204649460AF0FDF901460AF03AF800
:1024100009F0AEF870604946204609F0FDFD01461E
:102420000AF030F809F0A4F83060029809F09AFF39
:102430006FF00F010AF003FB214609F061FE04462C
:1024400040451FDD444620E0204830602048706051
:10245000D6F89800012804D01B48B0601948F060F5
:1024600025E0D6F89C80D6F8A840414620460AF0E0
:10247000C9F9B0604146204609F0CEFDC6F8987013
:10248000F06014E0544500D95446204604F04AFF59
:10249000D6F89C100AF0B6F9B060204604F042FF6E
:1024A000D6F89C1009F0B8FDC6F88C70F060DFF823
:1024B0001080F16D08F1580801BB0120002413E0E1
:1024C000080D00200000B4420000B4C200007042B9
:1024D0000000F0417B142E3E00401C4600004842A4
:1024E000000080BF00002041F06506EB041041466B
:1024F000183006F0AFFC641C042CF6DB434907AA35
:102500000C460C98FFF749FE21460C9806F0F8FFA0
:1025100003A806F01BFD09F06DFF6FF005010AF03E
:102520008EFA2946FFF71EFE59460698FFF7E9FD89
:10253000D6E91E01884201DA2844B067706F90B96D
:10254000306E28443066B0F57A7F0CDD2F4930229A
:102550003C39A1F11000376600F05DFA2B48414686
:102560001C3806F077FC706F0FB0BDE8F08F70B5C7
:1025700088B0044604A806F081FCD4E93001451A6D
:10258000684606F031FC064604AB04F1A002694639
:102590002846FFF793FE07F0C5FB08B0304670BD34
:1025A00004224FF49671AFF2390007F033BAAFF25C
:1025B000410007F029BD10B5FFF78AFD00280DD1B5
:1025C000124800216438C0F88C100121C0F888102E
:1025D000AFF23300BDE8104007F0E0BA10BD10B50F
:1025E000AFF2750007F010FDAFF27D00BDE81040BE
:1025F00007F00ABD054901206439C1F88C000020AC
:10260000704702486438406F704700006C0D00202E
:10261000B2F120030AD5C2F1200301FA02F120FA37
:1026200003F300FA02F041EA0301704700FA03F1F4
:102630004FF000007047B2F120030AD5C2F1200329
:1026400020FA02F001FA03F341FA02F140EA030032
:10265000704741FA03F04FEAE171704710B54C1032
:1026600084EA530404D54042C1F1000138BF491E39
:102670001B4204D55242C3F1000338BF5B1E00F079
:102680005BFA14F0804F04D04042C1F1000138BF22
:10269000491E14F0004F04D05242C3F1000338BF6A
:1026A0005B1E10BD1CB50C46064B7B446946009072
:1026B000204600F0ACFB04460020694600F0BAFB5F
:1026C00020461CBD8707000070B504468569006878
:1026D000C10601D5302600E02026C00707D070BD16
:1026E000D4E9012130469047206A401C20626D1ECB
:1026F000F6D570BD70B5044685690078C00707D16E
:1027000070BDD4E9012120209047206A401C20623E
:102710006D1EF6D570BD0000F0B40D4601880905A8
:1027200002D5214C7C4402E01F4C7C440E34002135
:1027300000F1240608E002F00F071209E75D42EA03
:1027400003721B097754491C52EA0307F3D102783C
:102750000023120704D5702D06D009B102231134CD
:102760002246F0BC00F0A5BA01231034F8E770B59A
:1027700004460D462146106800F069FA02462946D3
:102780002046BDE870400023C6E7D21D22F00703B3
:10279000D3E90023C0E70368126843F02003036015
:1027A0000823C3610023B7E735B000002DE9F05FCF
:1027B000894604464FF0000ADFF874B1FB44C0F8C4
:1027C00020A02046E1688847002874D0252806D03C
:1027D000D4E901219047206A401C2062F1E70026DD
:1027E0005F462046E16888472028054607DB312DF3
:1027F00005D2781910F8200C08B10643F1E7B007AC
:1028000001D526F00406C4F81CA00027C4F818A0BF
:102810002A2D09D0284604F01DFD38B304EB8708A3
:10282000303DC8F8185019E059F8041B204604EB55
:1028300087029161E1688847012F054618D1E06958
:10284000002820DA26F020061DE0D8F8180000EB5A
:10285000800005EB40003038C8F818002046E168D9
:102860008847054604F0F6FC0028EED1012F0AD077
:102870002E2D08D12046E16888477F1C0546022F8F
:1028800046F02006C4DBA069002803DA404246F087
:102890000106A061F00701D026F010066C2D0BD0C8
:1028A000682D09D04C2D39D06A2D35D0742D35D0F6
:1028B0007A2D33D016E038E0E1682F46204688476D
:1028C000B842054609D16C2F26D04FF48060E168EC
:1028D000064320468847054604E06C2F1AD04FF483
:1028E000807006430DB3A5F14100192802D82035A8
:1028F00046F400664A462946204626604E46FDF7C5
:102900002FFC80B101280BD0F61D26F0070000F146
:10291000080956E74020E4E78020D8E70020D6E702
:1029200006F104094DE7284652E7206ABDE8F09F0A
:10293000C5AF000040EA010310B59B070FD1042A80
:102940000DD310C808C9121F9C42F8D020BA19BA7A
:10295000884201D9012010BD4FF0FF3010BD1AB1DF
:10296000D30703D0521C07E0002010BD10F8013B34
:1029700011F8014B1B1B07D110F8013B11F8014B5B
:102980001B1B01D1921EF1D1184610BD032A40F243
:10299000308010F0030C00F0158011F8013BBCF101
:1029A000020F624498BF11F801CB00F8013B38BF19
:1029B00011F8013BA2F1040298BF00F801CB38BF27
:1029C00000F8013B11F0030300F00E83083AC0F059
:1029D000088051F8043B083A51F804CBA0E80810ED
:1029E000F5E7121D5CBF51F8043B40F8043BAFF320
:1029F0000080D20724BF11F8013B11F801CB48BF7A
:102A000011F8012B24BF00F8013B00F801CB48BFAF
:102A100000F8012B7047431A28BF9A4240F2E48223
:102A2000104410F0030F11441EBF11F8013D521E57
:102A300000F8013D10F0030F7FF4F6AF103AC0F03C
:102A40000A8010B531E91850103A20E91850BFF447
:102A5000F9AFBDE81040530724BF31E9081020E961
:102A6000081044BF51F8043D40F8043D12F0030F34
:102A700008BF7047D20728BF31F8023D48BF11F8A0
:102A8000012C28BF20F8023D48BF00F8012C7047F8
:102A900002F0FF0343EA032242EA024200F002B8D6
:102AA0004FF000020429C0F0128010F0030C00F077
:102AB0001B80CCF1040CBCF1020F18BF00F8012BF5
:102AC000A8BF20F8022BA1EB0C0100F00DB85FEAC3
:102AD000C17C24BF00F8012B00F8012B48BF00F88F
:102AE000012B70474FF0000200B5134694469646FE
:102AF000203922BFA0E80C50A0E80C50B1F1200111
:102B0000BFF4F7AF090728BFA0E80C5048BF0CC0BE
:102B10005DF804EB890028BF40F8042B08BF70471C
:102B200048BF20F8022B11F0804F18BF00F8012B8E
:102B3000704770477047704753EA020C00F0698095
:102B40002DE9F04B4FF00006002B1FBFB3FA83F5C1
:102B500003FA05F424FA05F65E4012BF1643B2FAF2
:102B600082F502FA05F4C5F120051EBF22FA05FC24
:102B700044EA0C04203556EA044C4FEA144418BFCA
:102B8000641C4FF000084FF00009904271EB030CF9
:102B900039D3002919BFB1FA81F701FA07F6B0FA63
:102BA00080F700FA07F6C7F120071EBF20FA07FCDE
:102BB00046EA0C062037B6FBF4FCA7EB0507103FEE
:102BC00007F01F0BCBF120060CFA0BFB2CFA06F6D4
:102BD00044BFB3460026202FA4BF5E464FF0000B33
:102BE0005BEA060C08BF4FF0010B19EB0B09ABFBBE
:102BF000027C48EB0608C01B06FB02CC0BFB03CC97
:102C000071EB0C01C1E70B46024641464846BDE860
:102C1000F08B13B54FF000004FF00001AFF30080D0
:102C2000BDE81C40704710B500F010FA006810BDF8
:102C300010B5044600F00AFA046010BD09684A05A0
:102C400001D540B27047C905FCD500B2704709688C
:102C50004A0501D5C0B27047C905FCD580B270479E
:102C600070B50C460546012A05D02878800600D5A7
:102C7000EA69002302E0012305E05B1C934202D2D3
:102C8000E05C0028F9D1A869E618C01AA861286A92
:102C9000184428622846FFF717FD04E0D5E9012112
:102CA00014F8010B9047B442F8D32846FFF722FDF1
:102CB00070BD2DE9F0470D4699469246044600F155
:102CC00024080168880604D5E06921F0100121601C
:102CD00000E00120A84201DD471B00E00027A169B8
:102CE0007A1902EB0900081AA0612078C00602D404
:102CF0002046FFF7E9FC002608E0D4E901211AF894
:102D000006009047206A401C761C20624E45F4DB8A
:102D10002078C0060AD52046FFF7D6FC06E0D4E9A5
:102D2000012130209047206A401C2062381EA7F104
:102D30000107F4DC07E0D4E9012118F80500904709
:102D4000206A401C2062281EA5F10105F3DC204604
:102D5000FFF7D0FC2078000602D50220BDE8F087FE
:102D60000120FBE72DE9F041064600241068752993
:102D7000314616A510D0FFF761FF002802DA404265
:102D800013A507E031688A0701D512A502E04907BB
:102D900004D511A5012401E0FFF759FF00210A2203
:102DA00006F1240709E0B0FBF2FCB0FBF2F302FBF2
:102DB0001C00303078541846491C0028F3D12346B3
:102DC0002A463046BDE8F041FFF773BF000000001F
:102DD0002D0000002B000000200000001168026898
:102DE000006A530501D508700AE0D30501D50880B3
:102DF00006E0130603D5C217C1E9000200E008602F
:102E00000120704701694A1C02610878704700B5CB
:102E10008FB0CDE901310021059105497944CDE913
:102E2000031011466846FFF7C1FC0FB000BD00005B
:102E3000E5FFFFFF0A6802F8010B0A607047000017
:102E40002DE9FF5F15468A460446DFF8AC80F8445A
:102E50000027D8E900103E46CDE9001010E03AF80E
:102E600016106A4602A800F0F3FC411C07D0217836
:102E7000890603D5E269391891420DD80744761CBA
:102E80002078800602D5E069B84205DDAE42E6DB77
:102E90003AF816000028E2D1A069C01BA0612046C4
:102EA000FFF712FCD8E90010CDE90010002017E070
:102EB0003AF818106A4602A800F0CAFCB0F1FF3FC9
:102EC00081460BD000250DF1080B05E0D4E9012166
:102ED0001BF8050090476D1C4D45F7D308F1010024
:102EE000B0428046E4DB206A384420622046FFF787
:102EF00001FCBDE8FF9F000046A900002DE9F0415C
:102F00008046D21D22F007020025D2E90002F529F1
:102F100015A614D0011E72F1000106DA0023D0EBD1
:102F2000030063EB020211A608E0D8F800108B073B
:102F300001D50FA602E0490701D50EA601251146CD
:102F4000002408F1240704E000F084F830323A55F8
:102F5000641C50EA0102F7D12B4632462146404616
:102F6000BDE8F041FFF7A5BE000000002D00000005
:102F70002B0000002000000030B4002100F12404E8
:102F800008E002F00705D208303542EA4372DB0858
:102F90006554491C52EA0305F3D10468002310A2CA
:102FA000250707D5A40600D421B1C46901230DA2C9
:102FB000641EC46130BCFFF77CBE10B504462146D8
:102FC0001068FFF744FE02462046BDE8104000238B
:102FD000D2E7D21D22F00701D1E90023CCE700009F
:102FE000000000003000000010B5203AC0F00B8057
:102FF000B1E81850203AA0E81850B1E81850A0E8FD
:103000001850BFF4F5AF5FEA027C24BFB1E8185056
:10301000A0E8185044BF18C918C0BDE810405FEAC6
:10302000827C24BF51F8043B40F8043B08BF704742
:10303000D20728BF31F8023B48BF11F8012B28BF47
:1030400020F8023B48BF00F8012B7047004870474A
:10305000C00D002030B5B0F10A024FEA900E71F1B8
:1030600000034EEA817EB0EB0E0061EB91014FEA66
:10307000101E4EEA017E10EB0E0041EB11114FEADB
:10308000102E4EEA016E10EB0E0041EB11214FEABB
:10309000104E4EEA014E10EB0E0041EB114140186C
:1030A00041F100014FEAD00040EA41704FEAD101FE
:1030B00010EB80054FEA810444EA907444EB01046C
:1030C0006D1944EB0404521BA3414FF0000348BFA9
:1030D0000A3200D530BD401C41F1000130BD7047BF
:1030E0002DE9FF4F0C461E464FF0FF378BB0D2E95B
:1030F0000001DDF860800A908A46C1F30A5505B9DF
:103100003D46002108464FF00000BAF1000F00F4E0
:10311000400005DA00EB80004FF4400101EA500066
:103120004FEA9059B9F1010F00DDB9460A9850EA0B
:103130004A000ED044F61050A5F2FF3545432F1437
:10314000B8F1000F1ED07542291E1EDDC9F1000224
:103150001CE0B8F1010F4FF0000001D0302103E076
:10316000F24305E02154401CB042FBDB3046002214
:10317000002121540B99C1F80880C1E900200FB04B
:10318000BDE8F08FBD1B6D1CDEE74A4600DA6942E0
:1031900006A800F0F3FB06AB93E8070003AB83E857
:1031A000070050460A9900F0ABFC8DE80700A0F537
:1031B00000501F3800900398002D0ADD42F21F01D5
:1031C0004A460844002303A90390684600F014FF10
:1031D00009E0A0F500504A461F38002303A90390D8
:1031E000684600F01EFF8DE807000004000C03D0C5
:1031F0004FF0FF30410800E01046B8F1000F03D057
:103200000022009215461EE0751E05D4FFF722FF2E
:10321000303262556D1EF9D5B3460122084302D003
:1032200000227F1C04E02078302801D100227F1E7C
:10323000002A099784D01DE0112D07DAFFF70AFF55
:10324000303262556D1C50EA0102F5D1084302D0BC
:103250000098C8B10EE00021681E05E0235C625CA6
:1032600063542254401E491C8142F7DBAB46A81B25
:10327000401E0990002004F80B000B98099AC0F832
:103280000880C0E9002B7AE711264FF0000857E7C5
:103290002DE9F04F88460446D21D22F0070191B077
:1032A000D1E90001CDE90A0103F0B4FE02460B9812
:1032B000C00F01D02D2007E02068810701D52B2009
:1032C00002E0202101EAC000032A099001D0072A68
:1032D00005DB03464146204600F010FB0BE1207859
:1032E000800601D5E06900E00620B8F1650F81464F
:1032F00006D0B8F1660F18D0B8F1670F70D131E081
:103300000020B9F1110F009001DB112301E009F158
:1033100001030AAA01A90CA8FFF7E2FEDDE90C707F
:10332000002609F10105834647E001204B46009045
:103330004FF000470AAA01A90CA8FFF7D1FEDDE96A
:103340000DB00C995D46002610B909F101000D1869
:10335000B9EB050003D4C0F1FF3609F10105A5EB77
:1033600009002BE0B9F1010F01DA4FF0010900204B
:10337000B9F1110F0090484601DD112300E003462A
:103380000AAA01A90CA8FFF7ABFEDDE90C704D46B7
:1033900000268346207800070AD4AB4500DA5D4654
:1033A00001A8012D04DD411911F8011C302907D0B5
:1033B0004F4502DA17F1040F04DA012082460FE0CC
:1033C0006D1EEEE7002F02DCED1B3E4403E0781C8F
:1033D000A84200DD7D1CB81B00F1010A4FF0004738
:1033E0002078000703D4AA4501DB4FF0FF3A002103
:1033F000B7F1004F0DF143088DF8431024D002209F
:103400002B23002F01DA7F422D230A21021EA0F177
:10341000010000DC5FB197FBF1FC97FBF1F201FBCF
:103420001C7C17460CF1300C08F801CDEEE7A8F132
:10343000010003702188090501D5452100E06521BF
:10344000A0F1010800F8011C09980FA9A1EB0807D9
:10345000FF1D00B10120411901EBEA70A169384458
:10346000081A401EA0612078C00602D42046FFF74B
:103470002BF9099828B1D4E901219047206A401C12
:1034800020622078C00622D52046FFF71DF91EE0F5
:10349000002E04DBB34502DD01A8805D00E0302092
:1034A000D4E901219047206A401C2062761CAAF1D1
:1034B00001005FEA000A0AD100F01CFAC068016846
:1034C000405CD4E901219047206A401C2062281EFC
:1034D000A5F10105DCDC07E0D4E9012118F8010BB6
:1034E0009047206A401C2062381EA7F10107F3DCD8
:1034F0002046FFF7FFF8032011B041E62DE9F04F19
:1035000004460D46D21D22F0070089B0D0E900978D
:103510004846394603F07EFD0246F80F01D02D23C0
:1035200007E02068810701D52B2302E0202101EA72
:10353000C0038DF820300BB1012000E00020032AE9
:10354000824601D0072A04DB2946204600F0D6F93E
:103550003FE12078800601D40D2500E0E569C7F33E
:103560000A560D2D49DA00214FEA175B08464FF045
:103570000000002F00F4400007DA00EB80004FF459
:10358000400100EBD07001EA60008115012901DDE6
:103590004FF0FF3100224FEA850CBCF1180F06D323
:1035A0001346ACF118004FF08052C24003E04FF4D4
:1035B000801323FA0CF30CF10C0CBCF1200F04D394
:1035C000ACF1200C09FA0CF001E007FA0CF000292C
:1035D0004FF0004801DD18B90FE00ED140450CD383
:1035E00019EB02095F4121B9404502D19F4329EA05
:1035F0000209BBEB175F00D0761C2088000502D5BE
:103600007B48784402E07A487844193808AA302385
:1036100002F80A30037C0AF10101002E0AF1020AC5
:1036200053546A4602DC4FF0300101E04FF03101A3
:103630004FF001088DF8001002D0A6F2FF3603E02B
:1036400059EA470100D06B4E002D02DC21780907B2
:1036500004D54FF002082E218DF80110C446002138
:103660000BE0C7F303433F01C35C491C6D1E02F826
:103670000830052908F1010801DA002DF1DC0021EC
:103680000CE000EB1973491C1B786D1E082902F829
:1036900008304FEA091908F1010801DA002DF0DCC1
:1036A00021688B0602D516E0A8F10108E04505DD8A
:1036B00002EB080313F8013C302BF5D0B8F1000FF2
:1036C00009DD02EB080313F8013C2E2B03D1090797
:1036D00001D4A8F10108002D05DD3E2102F80810F3
:1036E0006D1E08F10108407C002E02F8080008F168
:1036F000010804DA2D20764202F8080002E02B20AF
:1037000002F808000A214FF47A70864208F1010895
:103710000BDB96FBF0F3303302F8083096FBF0F346
:1037200008F1010800FB136601E0642E0CDB642045
:1037300096FBF0F3303302F8083096FBF0F308F113
:10374000010800FB136601E00A2E06DB96FBF1F090
:10375000303002F8080008F1010896FBF1F001FB97
:103760001060303002F80800A16908F1010808EB88
:10377000050202EB0A00081AA0612078C00602D4F4
:103780002046FEF7A1FF216A08AE01EB0A00206285
:1037900004E0D4E9012116F8010B9047BAF1010ABF
:1037A000F7D22078C00602D52046FEF78DFF6E4680
:1037B00009E016F8010B3E280FD0D4E9012190470B
:1037C000206A401C2062B8F10108F2D22046FEF7C0
:1037D00091FF09B00320BDE8F08F206A28442062E1
:1037E00003E0D4E90121302090476D1EEBD3F8E7C8
:1037F000CDA1000002FCFFFF10B5436913B1AFF388
:10380000008001E0FFF72CFA012010BD127800F1D2
:1038100024010A7000224A700122EDE711684FF07E
:10382000FF32E9E710B5436913B1AFF3008001E05F
:10383000FFF706FB012010BD128800F124018284ED
:103840000022C2840122EDE711684FF0FF32E9E760
:1038500070B516460C46054600F044F8036893F828
:103860000101012806D0FF2C0FD8185D68B1012096
:103870002C7070BDD3F807013246214603F20713BE
:1038800003442846BDE8704018474FF0FF3070BD34
:1038900000487047C00D00207546FFF7F9FFAE469F
:1038A00005006946534620F00700854618B020B54C
:1038B000FCF7CEFCBDE820404FF000064FF00007BB
:1038C0004FF000084FF0000B21F00701AC46ACE8C8
:1038D000C009ACE8C009ACE8C009ACE8C0098D4635
:1038E0007047000010B500F005F8001D10BD00BFC6
:1038F000D97C000000487047E00D00202DE9F04120
:103900001F46044603260168072A01F4006004DB11
:1039100008B116A505E016A503E008B115A500E05D
:1039200015A521F010002060A069C01EA0610FB194
:10393000401EA0612046FEF7C7FE4FB1D4E9012129
:1039400038469047206A401C2062C01C206206E076
:10395000206AFAE7D4E9012115F8010B9047761E99
:10396000F8D22046FEF7C6FEBDE8F0814E414E007B
:103970006E616E00494E4600696E66002DE9F047A3
:10398000814616468AB0354878440DC88DE80D004A
:1039900032487844801C03AC0DC884E80D0041F621
:1039A0009B300844372190FBF1F290FBF1F5A5F133
:1039B000800501FB12041B3C02D56442012000E09B
:1039C0000020DFF898A080460027FA44AAF1BE0A3A
:1039D0000EE0E0070AD03246684607EB47010123B4
:1039E0000AEB810100F01DFB8DE8070064107F1CCD
:1039F000002CEED1194F7F44AE3F19E0E80715D0F7
:103A000007EB04100DF1180A90E80E008AE80E008A
:103A1000C068F04201D1981908903246012306A9E6
:103A200003A800F0FEFA03AB83E807006D10641CE6
:103A3000002DE3D14FF0010332466946B8F1000F83
:103A400003A802D000F0D8FA01E000F0EAFAC9E9D0
:103A50000001C9F808200AB0BDE8F087D89E000030
:103A600010B50446AFF300802046BDE81040FCF7D7
:103A7000DABB70474FF0013C50F8042B51F8043B7F
:103A80009A4221D1A2EB0C03934313EACC1317D132
:103A900050F8042B51F8043B9A4215D1A2EB0C03C9
:103AA000934313EACC130BD150F8042B51F8043B89
:103AB0009A4209D1A2EB0C03934313EACC13DBD057
:103AC0004FF00000704700BFD01A01BAB1FA81F17F
:103AD00001F0180122FA01F0CB40C1F12001DBB264
:103AE000C0B2C01A2CFA01F3D11A914311EAC311E2
:103AF000E6D1704701491820ABBEFEE72600020060
:103B00005FEA400C08BF91F0000F4FEA8C234FEAA8
:103B1000C12243EA51514FEA1C5018BF00F5F04052
:103B20004FEA300018BF41F000415FEA6C5C00F0E2
:103B30002980BCF1FF3F08BF40F080407047130C64
:103B400006BF12044FF0100C4FF0000C130E04BF10
:103B500012020CF1080C130F04BF12010CF1040C3B
:103B6000930F04BF92000CF1020CD30F04BF52005C
:103B70000CF1010C11464FF00002A0F11F00A0EB68
:103B80000C00704711F0004F08BF704731F0004142
:103B90003FF4D5AF0B0C06BF09044FF0100C4FF0EB
:103BA000000C0B0E04BF09020CF1080C0B0F04BF34
:103BB00009010CF1040C8B0F04BF89000CF1020CFD
:103BC000CB0F04BF49000CF1010CCCF12003A0EB9A
:103BD0000C0022FA03F302FA0CF241EA030100F1AD
:103BE0000100704720F07F4C80EA030023F07F47FC
:103BF000ACEB070303F57C5300F0004003F1FF0337
:103C00002DE980494FEA154B09B44FEA144325EAE0
:103C10000B4E24EA03480FF2042606EB132749084B
:103C20003E785FEA320203FB0667C7F5000707FB31
:103C300006F64FEA54374FEAD64606F1020607FB6E
:103C4000066CCCF1005C4FEA1C472CEA074C07FBE2
:103C500006F40CFB06F504EB15464FEA961634BF46
:103C600000204FF000404FEAD13706FB07FC4FEA37
:103C70001C4C0CFB0BF7D21B03FB0CF761EB070191
:103C80000CFB0EF7B0EB074072EB17420CFB08F78A
:103C900034BFA2EB0742B2EB074261EB17414FEA98
:103CA0000C444FEA910706FB07FC4FEA1C4C0CFB47
:103CB0000BF7B0EBC74072EB573203FB0CF734BF86
:103CC000A2EBC742B2EBC74261EB57310CFB0EF7D8
:103CD000B0EBC70072EB57720CFB08F734BFA2EBD6
:103CE000C702B2EBC70261EB5771039F4FEA8161D4
:103CF00041EA921104EBCC044FEAD1374FEA8262D9
:103D000006FB07FC42EA90124FEA80604FEA1C4C27
:103D10000CFB0BF7D21B03FB0CF761EB07010CFB51
:103D20000EF7B0EB074072EB17420CFB08F734BFFD
:103D3000A2EB0742B2EB074261EB17414FEA8C5509
:103D40004FEA910704EB9C2406FB07FC4FEA1C4C4E
:103D50000CFB0BF7B0EBC74072EB573203FB0CF7D1
:103D600034BFA2EBC742B2EBC74261EB57310CFB49
:103D70000EF7B0EBC70072EB57720CFB08F734BFBD
:103D8000A2EBC702B2EBC70261EB577115EB4C25F2
:103D90004FEA816141EA92114FEA82624FEAD137DC
:103DA00042EA901206FB07FC44F100044FEA8060EF
:103DB0004FEA1C4C0CFB0BF7D21B03FB0CF761EB1F
:103DC00007010CFB0EF7B0EB074072EB17420CFB40
:103DD00008F734BFA2EB0742B2EB074261EB174191
:103DE00015EB1C154FEA813141EA92414FEA8232CC
:103DF00042EA90424FEA80304FEA0C7644F10004E8
:103E000048EA03434EEA0B484FF0000EB2EB080CB1
:103E100071EB030724BF624639464EEB0E0E4FF09E
:103E2000000B0018524149414BEB0B0BB2EB080C55
:103E300071EB03077BF1000B24BF624639464EEB62
:103E40000E0E4FF0000B0018524149414BEB0B0B8B
:103E5000B2EB080C71EB03077BF1000B24BF624649
:103E600039464EEB0E0E51EA020718BF46F0010626
:103E700016EB0E7655F1000254F1000103D5BDE8B2
:103E80008901BDE80088BDE88901BDE80048B61990
:103E9000524141EB0101A3F10103704780807F7E15
:103EA0007D7C7B7A797877767675747372717170B0
:103EB0006F6E6E6D6C6C6B6A6A6968686766666562
:103EC0006464636362616160605F5F5E5E5D5D5CF0
:103ED0005C5B5B5A5A595958585757565655555561
:103EE0005454535352525251515050504F4F4F4EC1
:103EF0004E4D4D4D4C4C4C4B4B4B4A4A4A4949490F
:103F00004848484747474746464645454544444450
:103F1000444343434342424242414141002B9C4679
:103F200030D477002BD01CB54FEA370703B44FF0DD
:103F300010004FF01001BAF1000F06D0BCF1000FD5
:103F4000DCBF40F0080040F008014FF000000FBC5B
:103F5000BDE810400BF1010BBBF1010F08BF5FEA98
:103F6000170722BF12F1010211F101014FF00041C8
:103F700043F1000300F0004043EA00007047F9D32A
:103F80005708D0E746EA064613F1400F4FEA1646B7
:103F90001FDD13F1200FDFBF16430A460021203337
:103FA0005B42BED0C3F1200746EA064602FA07F795
:103FB0004FEA164646EA0706C3F1200722FA03F243
:103FC00001FA07F721FA03F14FF0000342EA070272
:103FD000A7E746EA020646EA06464FEA164646EADA
:103FE0000106BCBF46EA0646360C4FF000034FF010
:103FF00000024FF0000194E72DE9804C9A46934669
:1040000070B491E8380007C831EA400C48BF34EA80
:10401000430C03D5FFF7E6FDFFF780FFF0BCBDE8DA
:10402000008C2DE9804C9A46934670B491E8380094
:1040300007C810F0804F08BF13F0804F03D100F085
:1040400005F8FFF76BFFF0BCBDE8008C20F07F4760
:1040500080EA030023F07F4C07EB0C03A3F57C53AD
:1040600000F00040A3F1FE0392F0000F00F0B380D7
:1040700095F0000F00F077802DE901494FEA1140DB
:104080004FEA144621EA004800FB06FC24EA0647F2
:1040900008FB06F607FB08F800FB07F718EB0648D5
:1040A0004CEB164C4FEA124B18EB07484FEA1546FB
:1040B0004CEB174022EA0B4E0BFB06FC25EA0647A9
:1040C0000EFB06F607FB0EFE0BFB07F71EEB064E7C
:1040D0004CEB164C4FF000061EEB074E4CEB174B0B
:1040E00018EB0B0840F1000018EB0E0B58EB000822
:1040F00040F100008F1A4FF000013CBFC943661B1E
:1041000014BFB5EB040C00213CBFC943F61B4FEABA
:1041100017444EEA8E0E27EA04454FEA1C4704FB7B
:1041200007622CEA074C05FB07F70CFB05F604FBBE
:104130000CFC16EB074642EB174216EB0C4642EB23
:104140001C421BEB060658EB0202414146EA9E0662
:1041500001D5BDE80189B619524141EB0101A3F136
:104160000103BDE801894FEA14454FEA114724EAEB
:10417000054621EA074C05FB07F406FB07F70CFB95
:1041800006F105FB0CFC11EB074144EB17444FEA29
:10419000124711EB0C4144EB1C4422EA074C05FB8F
:1041A00007F206FB07F70CFB06F605FB0CFC16EB0B
:1041B000074642EB174216EB0C4642EB1C456A18C9
:1041C00054F1000148BF7047B619524141EB01015B
:1041D000A3F10103704795F0000F37D04FEA114269
:1041E0004FEA144721EA024624EA074C02FB07F192
:1041F00006FB07F70CFB06F402FB0CFC14EB074470
:1042000041EB17414FEA154714EB0C4441EB1C41BD
:1042100025EA074C02FB07F506FB07F70CFB06F641
:1042200002FB0CFC16EB074645EB174516EB0C465C
:1042300045EB1C42121951F1000148BF7047B619F5
:10424000524141EB0101A3F1010370474FEA1445CC
:104250004FEA114724EA054621EA074C05FB07F11E
:1042600006FB07F70CFB06F24FF0000605FB0CFC03
:1042700012EB074241EB174112EB0C4251EB1C4190
:1042800048BF7047921841EB0101A3F10103704749
:1042900000BFFEE710B5024800F090F810BD000026
:1042A00018010020704710B5012000F08DFA10BDF4
:1042B00072B600BFFEE70146002291F821000228F5
:1042C00008D00420886300BF002081F8200000BFD0
:1042D000012070470868006820F00E000B68186025
:1042E0000868006820F001000B68186091F8403001
:1042F00001209840CB6B5860012081F8210000BF5D
:10430000002081F8200000BF1046E2E770B50446A7
:10431000002594F82100022803D00420A063012581
:1043200048E02068006820F00E00216808602068DE
:10433000006820F00100216808601F492068884259
:1043400001D1012026E01C4914312068884201D1A6
:1043500010201FE0184928312068884201D18015BB
:1043600018E015493C312068884201D1801411E0E1
:10437000114950312068884202D14FF4803009E061
:104380000D4964312068884202D14FF4801001E069
:104390004FF08070084908394860012084F82100F6
:1043A00000BF002084F8200000BF606B10B12046E1
:1043B000616B8847284670BD0800024070B504460E
:1043C000E06B05682068066894F840100420884077
:1043D0002840002846D006F00400002842D020687B
:1043E000006800F0200028B92068006820F0040070
:1043F0002168086057492068884201D1042027E0DD
:10440000544914312068884201D1402020E05149AC
:1044100028312068884201D1001519E04D493C310E
:104420002068884202D14FF4804011E04949503160
:104430002068884202D14FF4802009E04549643168
:104440002068884202D14FF4800001E04FF0806084
:10445000404908394860E06A00287AD02046E16A7D
:10446000884776E094F84010022088402840A0B3A6
:1044700006F0020088B32068006800F0200040B910
:104480002068006820F00A0021680860012084F894
:10449000210030492068884201D1022028E02D49BE
:1044A00014312068884201D1202021E02949283197
:1044B0002068884201D140151AE026493C31206825
:1044C000884202D14FF4005012E022495031206856
:1044D000884203D14FF400300AE017E01D496431EF
:1044E0002068884202D14FF4001001E04FF00070C4
:1044F00018490839486000BF002084F8200000BF38
:10450000A06A30B32046A16A884722E094F84010A0
:10451000082088402840E0B106F00800C8B12068B3
:10452000006820F00E002168086094F84010012017
:104530008840E16B48600120A06384F8210000BF3F
:10454000002084F8200000BF206B10B12046216BB2
:10455000884770BD080002400146002209B90120C9
:104560007047164B0868C01A1423B0FBF3F08000A4
:10457000086412480838C863022081F821000868DE
:10458000026843F6F0708243D1E901031843CB6817
:1045900018430B6918434B6918438B691843CB695F
:1045A000184302430868026000208863012081F8F4
:1045B0002100002081F8200000BFD1E70800024060
:1045C00070B5044600F0A4FA06462546681C10B1F2
:1045D00004480078054400BF00F09AFA801BA84206
:1045E000FAD370BD240000202DE9F04F8BB0814636
:1045F000B9F1010F7ED104F0B3F8002162480068E0
:1046000008F00CF809D861495F48006807F006FF18
:1046100003D85D4800685E4908605E495E480068EE
:1046200007F0FAFC04460021204607F0F7FE01D20D
:10463000012500E000255949204607F0EFFF01D28F
:10464000012000E0002005400DB100240AE054499B
:10465000204607F0E3FF05D85049204607F0DEFE6C
:1046600000D84A4C4A48006807F05CFE4D49087083
:10467000204607F057FE4B494870454801684A48B4
:1046800007F000FF019007F09BFC0022474BCDE9AB
:10469000020107F09DF807460022454B06F0DCFFBB
:1046A00005460022434B07F093F80022424BCDE928
:1046B000040107F067FA824607F0E2F900B23F49C9
:1046C00008802146384807F0DDFE019007F078FCAD
:1046D0000022364BCDE9020107F07AF805460022A8
:1046E000334B06F0B9FF0022324BCDE9040107F04D
:1046F0006FF800E044E0074600222F4B07F042FA33
:10470000824607F0BDF900B22C494880002009908C
:1047100008900790069008460088C0F3072009908B
:1047200008460078089008464088C0F307200790A4
:10473000084680780690FF202149087019480078C3
:1047400048701848407888700998C87008980871AF
:1047500007984871069888710020C87100BF07E06B
:104760001749C979164A125C1144154AD171401C87
:104770000728F5DB09221249124801F003FD00BFAA
:104780000BB0BDE8F08F00000800002000003443AB
:10479000180000200000B442040000200000B4C251
:1047A000000034C31000002000002041008066405B
:1047B000000004400000594000409F4012000020CB
:1047C00070000020D000002010B5044604480068A6
:1047D000204020B1024804602046FFF705FF10BDCD
:1047E000140401402DE9F8470346002294466EE187
:1047F0004FF0010808FA02F4D1F8008008EA04003A
:10480000A0427DD1DFF8DCA2D1F80480A8EB0A0930
:10481000D0453AD014DCB8F1030F50D009DCB8F120
:10482000000F31D0B8F1010F1CD0B8F1020F49D1FF
:1048300020E0B8F1110F18D0B8F1120F42D11EE0EC
:10484000B9F5881F25D006DCB9F5803F20D0B9F531
:10485000801F37D11AE0B9F5001F18D0B9F5041F31
:1048600030D117E0D1F80CC02DE0D1F80C8008F160
:10487000040C28E0D1F80C8008F1080C23E0D1F8F2
:104880000C8008F10C0C1EE000BF00BF00BF00BF91
:1048900000BF00BFD1F80880B8F1000F02D14FF07F
:1048A000040C0BE0D1F80880B8F1010F03D14FF0F0
:1048B000080C1C6102E04FF0080C5C6103E04FF053
:1048C000000C00E000BF00BFFF2801D8984601E0BF
:1048D00003F104084646FF2802D84FEA820803E0A5
:1048E000A2F108084FEA88084746D6F800804FF042
:1048F0000F0909FA07F928EA09080CFA07F900E094
:1049000088E048EA0908C6F80080D1F8048008F079
:104910008058B8F1805F7DD100BFDFF8CC81D8F836
:10492000188048F00108DFF8C091C9F81880C8461F
:10493000D8F8188008F00108CDF8008000BF00BF4B
:104940004FEAB9384FEA920958F829504FEA82786D
:104950004FEA18794FF00F0808FA09F825EA080518
:10496000DFF88881434502D14FF0000816E0DFF8F8
:104970008081434502D14FF001080FE0DFF87481D8
:10498000434502D14FF0020808E0DFF86C8143454F
:1049900002D14FF0030801E04FF004084FEA82799A
:1049A0004FEA197908FA09F848EA0505DFF84C8159
:1049B0004FEA920948F82950D1F8048008F4801889
:1049C000B8F5801F0AD1DFF83881D8F8008048EAAE
:1049D0000008DFF82C91C9F8008009E0DFF8208199
:1049E000D8F8008028EA0008DFF81491C9F80080A0
:1049F000D1F8048008F40018B8F5001F10D1DFF8D2
:104A0000008108F10408D8F8008048EA0008DFF8BF
:104A1000F09000E05AE009F10409C9F800800DE0C7
:104A2000DFF8DC8008F10408D8F8008028EA0008E4
:104A3000DFF8CC9009F10409C9F80080D1F80480AE
:104A400008F40038B8F5003F0ED1DFF8B480A8F1C3
:104A50000408D8F8008048EA0008DFF8A490A9F11B
:104A60000409C9F800800DE0DFF89480A8F104087B
:104A7000D8F8008028EA0008DFF88490A9F104093A
:104A8000C9F80080D1F8048008F48038B8F5803F78
:104A90000ED1DFF86C80A8F10808D8F8008048EA49
:104AA0000008DFF85C90A9F10809C9F800800DE062
:104AB000DFF84C80A8F10808D8F8008028EA000840
:104AC000DFF83C90A9F10809C9F80080521CD1F820
:104AD000008028FA02F8B8F1000F7FF489AEBDE833
:104AE000F88700000000111000100240000801408B
:104AF000000C01400010014000140140080001407A
:104B0000080401400AB1016101E00B040361704730
:104B100001480068704700001C000020014691F821
:104B20003D00704770B504460CB9012070BD94F883
:104B30003D0028B9002084F83C00204600F022FC0B
:104B4000242084F83D002068006820F001002168DE
:104B500008602068006840F4004021680860206810
:104B6000006820F400402168086000F0EFFD054671
:104B70005C496068884206D85B48854201D20120C2
:104B800007E0002005E05948854201D2012000E0FD
:104B90000020012800D1C9E75548B5FBF0F6206890
:104BA000406820F03F003043216848604D4960680C
:104BB000884201D8701C07E04FF4967070434FF4A0
:104BC0007A71B0FBF1F0401C2168096A21F03F01C5
:104BD00008432168086243496068884214D8681E07
:104BE00061684900B0FBF1F0401CC0F30B000428E1
:104BF00001D204203DE0681E61684900B0FBF1F07D
:104C0000401CC0F30B0034E0A06838B9681E61682E
:104C100001EB4101B0FBF1F0401C0AE0681E616845
:104C200001EBC10202EB0111B0FBF1F0401C40F4BA
:104C30008040C0F30B0008B901201AE0A06848B911
:104C4000681E616801EB4101B0FBF1F0401CC0F34C
:104C50000B000CE0681E616801EBC10202EB011160
:104C6000B0FBF1F0401CC0F30B0040F4804040F476
:104C700000402168C9694CF6FF72914308432168DE
:104C8000C861D4E9070108432168096821F0C0011F
:104C9000084321680860D4E9031008432168896843
:104CA00048F2FF329143084321688860D4E9050146
:104CB00008432168C96821F0FF0108432168C860E2
:104CC0002068006840F0010021680860002020642E
:104CD000202084F83D000020206384F83E0000BFBF
:104CE00024E70000A086010080841E0000093D002A
:104CF00040420F002DE9F84F04460F4690461E46ED
:104D0000FFF706FF05464FF0000994F83D00202804
:104D10007ED11923012263492046009501F0C3FB8F
:104D200010B10220BDE8F88F00BF94F83C000128C4
:104D300001D10220F6E7012084F83C0000BF206882
:104D4000006800F0010028B92068006840F0010008
:104D5000216808602068006820F40060216808600D
:104D6000242084F83D00002020644F48E06200BF0A
:104D70002068006840F48070216808603346002293
:104D80004FF001112046009501F08DFB58B12068CD
:104D9000006800F48070B0F5807F02D14FF400709D
:104DA00020640320BEE707F0FE0021680861FFF7DA
:104DB000AFFE054620684069C0F3400A206840699C
:104DC000C0F3802B10E0FFF7A3FE401BB04200D8D9
:104DD00016B9A02084F83D0020684069C0F3400A5D
:104DE00020684069C0F3802B94F83D00A02805D0CE
:104DF000BAF1000F02D1BBF1000FE4D0202084F8FB
:104E00003D0020684069C0F3400028B3206800E0FE
:104E100045E0006840F400702168086000BF002091
:104E2000009020684069009020688069009000BF71
:104E300000BF192301221B492046009501F033FBD6
:104E400008B101206EE7202084F83D0000BF00205B
:104E500084F83C0000BF65E72068006840F40070FB
:104E6000216808606FF4806021684861192301227D
:104E70000C492046009501F016FB08B1012051E7CE
:104E800009F10109C145FFF473AF202084F83D000A
:104E900000BF002084F83C0000BF012042E7022050
:104EA00040E70000020010000000FFFF2DE9FE4F68
:104EB00004460F4690469946DDE90CAB0E9E002055
:104EC0000290FFF725FE054694F83D00202872D198
:104ED00019230122CE492046009501F0E4FA10B1D1
:104EE0000220BDE8FE8F00BF94F83C00012801D1EC
:104EF0000220F6E7012084F83C0000BF206800682B
:104F000000F0010028B92068006840F00100216825
:104F100008602068006820F4006021680860222092
:104F200084F83D00402084F83E0000202064C4F84E
:104F300024A0A4F82AB0608D2085B648E0624B46D4
:104F4000424639462046CDE9006501F059F908B1DD
:104F50000120C6E7208D88B900BF0020019020689D
:104F60004069019020688069019000BF00BF2068FF
:104F7000006840F40070216808604BE0208D012833
:104F80001AD12068006820F480602168086072B639
:104F900000BF00200190206840690190206880696E
:104FA000019000BF00BF2068006840F400702168D5
:104FB000086062B62EE029E1208D022819D1206810
:104FC000006840F400602168086072B600BF0020ED
:104FD000019020684069019020688069019000BFBD
:104FE00000BF2068006820F480602168086062B615
:104FF00010E02068006840F480602168086000BF0D
:10500000002001902068406901902068806901902B
:1050100000BF00BFEBE0208D03287DD8208D012844
:1050200015D12A463146204601F019FB08B101206E
:1050300057E720680069616A0870606A401C606216
:10504000208D401E2085608D401E6085CFE0208D24
:1050500002282CD1334600226F492046009501F0EA
:1050600022FA08B101203CE772B62068006840F4DB
:1050700000702168086020680069616A0870606AD1
:10508000401C6062208D401E2085608D401E608522
:1050900062B620680069616A0870606A401C6062DC
:1050A000208D401E2085608D401E60859FE0334628
:1050B000002259492046009501F0F5F908B1012078
:1050C0000FE72068006820F480602168086072B6ED
:1050D00020680069616A0870606A401C6062208D07
:1050E000401E2085608D401E60854C480068192157
:1050F000B0FBF1F04FF47A71B0FBF1F0C0EBC000FF
:1051000000EB8000029000BF0298401E02900298BF
:10511000A8B90020206300E039E0202084F83D0099
:10512000002084F83E00206C40F02000206462B62D
:1051300000BF002084F83C0000BF0120D1E62068B9
:105140004069C0F380000028DED02068006840F489
:1051500000702168086020680069616A0870606AF0
:10516000401C6062208D401E2085608D401E608541
:1051700062B620680069616A0870606A401C6062FB
:10518000208D401E2085608D401E60852FE02A46C0
:105190003146204601F063FA08B10120A1E62068FB
:1051A0000069616A0870606A401C6062208D401E60
:1051B0002085608D401E608520684069C0F38000B6
:1051C000A8B1208D032805D12068006820F48060F4
:1051D0002168086020680069616A0870606A401C84
:1051E0006062208D401E2085608D401E6085208D70
:1051F00000287FF410AF202084F83D00002084F8C0
:105200003E0000BF84F83C0000BF6AE6022068E66A
:10521000020010000000FFFF040001002800002031
:105220002DE9FC5F04460F4690469946DDE90CAB3C
:105230000E9EFFF76DFC054694F83D0020287DD1B9
:10524000192301224D492046009501F02CF910B197
:105250000220BDE8FC9F00BF94F83C00012801D16A
:105260000220F6E7012084F83C0000BF20680068B7
:1052700000F0010028B92068006840F001002168B2
:1052800008602068006820F4006021680860212020
:1052900084F83D00402084F83E0000202064C4F8DB
:1052A00024A0A4F82AB0608D20853548E0624B46E2
:1052B000424639462046CDE9006501F051F808B173
:1052C0000120C6E731E02A463146204601F00CFABB
:1052D00050B1206C042805D12068006840F40070AB
:1052E000216808600120B4E7606A007821680861DD
:1052F000606A401C6062208D401E2085608D401ECB
:10530000608520684069C0F3800070B1208D60B175
:10531000606A007821680861606A401C6062208DC4
:10532000401E2085608D401E6085208D0028CAD1DA
:105330002A463146204601F083F800E01CE050B1D7
:10534000206C042805D12068006840F400702168B2
:10535000086001207DE72068006840F40070216843
:105360000860202084F83D00002084F83E0000BF43
:1053700084F83C0000BF6CE702206AE702001000DE
:105380000000FFFF10B586B0044600200290039095
:10539000049005901A49206888422FD100BF19480F
:1053A000806940F00800174988610846806900F06C
:1053B0000800019000BF00BF4FF44070029012201F
:1053C00003900320059002A90F48FFF70BFA00BFD6
:1053D0000E49486840F0E06040F00200486000BFBD
:1053E00000BF0848C06940F400100649C86108467B
:1053F000C06900F40010019000BF00BF06B010BDEE
:105400000054004000100240000C01400000014028
:105410000348006803490978084401490860704757
:105420001C0000202400002010B50848006840F04F
:10543000100006490860032000F0A8F80F2000F0D3
:1054400007F800F02BF8002010BD000000200240FB
:1054500070B504460E4800784FF47A71B1FBF0F055
:105460000C490968B1FBF0F5284600F0F9FB08B1DA
:10547000012070BD102C07D200222146501E00F0E2
:1054800047F80548046001E00120F2E70020F0E75A
:1054900024000020280000202000002008B500BFC4
:1054A0001148806940F001000F4988610846806911
:1054B00000F00100009000BF00BF00BF0846C069B7
:1054C00040F08050C8610846C06900F080500090EC
:1054D00000BF00BF00BF0549486820F0E06040F011
:1054E0000070486000BF08BD00100240000001408D
:1054F00001460846002809DB00F01F0301229A40FC
:1055000043099B0003F1E023C3F8002100BF70476B
:105510002DE9F05F80460D461646002701F0A2FDFA
:10552000074639462A46334601F00700C0F1070A0C
:10553000BAF1040F02D94FF0040A01E0C0F1070AE2
:10554000D14600F1040ABAF1070F02D24FF0000A67
:1055500001E0A0F1030AD4464FF0010A0AFA09FA61
:10556000AAF1010A0AEA020A0AFA0CFA4FF0010B40
:105570000BFA0CFBABF1010B0BEA030B4AEA0B0431
:105580002146404601F076FDBDE8F09F00BF00F0E7
:105590000702064B19684FF6FF031940044B0B43F3
:1055A00043EA0221014B196000BF70470CED00E097
:1055B0000000FA0570B504460D460CB9012070BD17
:1055C0005A48006800F00700A8420ED25748006809
:1055D00020F007002843554908600846006800F09D
:1055E0000700A84201D00120E9E7207800F002007E
:1055F00002281DD1207800F00400042805D14C4871
:10560000406840F4E0604A494860207800F00800B3
:10561000082805D14648406840F460504449486035
:105620004348406820F0F000A168084340494860C2
:10563000207800F0010078B36068012806D13C486A
:10564000006800F4003090B90120B8E760680228D3
:1056500006D13748006800F0007040B90120AEE77D
:105660003348006800F0020008B90120A7E730487D
:10567000406820F00300616808432D494860FFF747
:1056800047FA064609E0FFF743FA801B41F28831EA
:10569000884202D9032092E707E02548406800F0DD
:1056A0000C006168B0EB810FEDD12048006800F07C
:1056B0000700A8420ED91D48006820F007002843C3
:1056C0001A4908600846006800F00700A84201D0A7
:1056D000012074E7207800F00400042807D1144862
:1056E000406820F4E060E168084311494860207890
:1056F00000F00800082808D10D48406820F46050E8
:10570000216940EAC1000A49486000F03FF80849B1
:105710004968C1F30311074A515CC8400649086053
:1057200006480068FFF794FE002048E7002002408A
:1057300000100240CCCA00082800002020000020F1
:1057400001480068704700002800002000B5FFF7FE
:10575000F7FF04494968C1F30221034A515CC8407C
:1057600000BD000000100240DCCA000800B5FFF7D1
:10577000E7FF04494968C1F3C221034A515CC840AC
:1057800000BD000000100240DCCA000870B5002116
:105790000022002400230020134D696801F00C054D
:1057A000F5B1042D02D0082D19D101E00F4819E000
:1057B0000F4DC1F38346AB5D01F4803555B10A4D01
:1057C0006D68C5F340450B4E725D084D5D43B5FBFA
:1057D000F2F402E0084D03FB05F4204602E000BFAE
:1057E000024800BF00BF70BD0010024000127A00E6
:1057F000BACA0008CACA000800093D00F8B5044644
:105800000CB90120F8BD207800F00100002878D004
:10581000F848406800F00C0004280CD0F5484068B7
:1058200000F00C00082811D1F248406800F48030E4
:10583000B0F5803F0AD1EF48006800F4003000283E
:105840005FD0606800285CD10120DBE700BF6068A2
:10585000B0F5803F06D1E748006840F48030E54964
:10586000086028E0606858B9E248006820F4803099
:10587000E04908600846006820F4802008601AE0CB
:105880006068B0F5A02F0BD1DA48006840F48020A2
:10589000D84908600846006840F4803008600AE093
:1058A000D448006820F48030D24908600846006877
:1058B00020F48020086000BF606888B1FFF728F9F5
:1058C000054606E0FFF724F9401B642801D90320B0
:1058D00098E7C848006800F400300028F2D010E0D3
:1058E000FFF716F9054606E0FFF712F9401B64289A
:1058F00001D9032086E7BF48006800F40030002883
:10590000F2D1207800F00200022857D1B94840684F
:1059100000F00C0050B1B748406800F00C000828B7
:1059200018D1B448406800F4803098B9B148006894
:1059300000F0020020B12069012801D0012061E7B8
:10594000AC48006820F0F800616940EAC100A9494C
:10595000086033E02069E8B10120A7490860FFF73B
:10596000D7F8054606E0FFF7D3F8401B022801D917
:10597000032047E79F48006800F002000028F2D0AB
:105980009C48006820F0F800616940EAC10099492C
:10599000086013E0002098490860FFF7B9F8054651
:1059A00006E0FFF7B5F8401B022801D9032029E7DC
:1059B0009048006800F002000028F2D1207800F042
:1059C000080008282DD1A069B8B101208B490860D2
:1059D000FFF79EF8054606E0FFF79AF8401B0228FD
:1059E00001D903200EE78348406A00F00200002836
:1059F000F2D0012001F028F813E000207F49086070
:105A0000FFF786F8054606E0FFF782F8401B0228FC
:105A100001D90320F6E67748406A00F0020000282A
:105A2000F2D1207800F00400042873D100277148D7
:105A3000C06900F0805070B900BF6E48C06940F086
:105A400080506C49C8610846C06900F080500090E1
:105A500000BF00BF01276A48006800F48070B0B939
:105A60006748006840F4807065490860FFF750F8A7
:105A7000054606E0FFF74CF8401B642801D90320D7
:105A8000C0E65F48006800F480700028F2D000BFD4
:105A9000E068012806D15748006A40F001005549E6
:105AA000086227E0E06858B95248006A20F0010017
:105AB000504908620846006A20F00400086219E0B4
:105AC000E06805280BD14B48006A40F004004949C2
:105AD00008620846006A40F0010008620AE0454892
